S02B00002F6170702F6275696C642F6B73646B312E312F776F726B2F64656D6F732F476C6175782F61726D677A
S1130000000600201D050000450500004505000010
S113001000000000000000000000000000000000DC
S11300200000000000000000000000004505000082
S11300300000000000000000450500004505000028
S11300404505000045050000450500004505000084
S1130050450500004505000045050000B50F0000FA
S113006033340000450500003D3400004505000020
S11300704734000045050000450500004505000023
S11300804505000045050000450500004505000044
S11300908D0F0000A50F0000450500004505000078
S11300A04505000045050000450500004505000024
S11300B04505000045050000C50F0000450500008A
S1130400FFFFFFFFFFFFFFFFFFFFFFFFFE3DFFFFBB
S11304100448054B10B5834203D0044B002B00D095
S1130420984710BDE0FEFF1FE0FEFF1F0000000024
S113043006480749091A8B10C90FC91810B5491085
S113044003D0044B002B00D0984710BDE0FEFF1FE3
S1130450E0FEFF1F0000000010B5074C2378002BBE
S113046009D1FFF7D5FF054B002B02D0044800E06B
S113047000BF0123237010BDE0FEFF1F0000000039
S113048038730000054B10B5002B03D00449054810
S113049000E000BFFFF7CCFF10BDC0460000000025
S11304A0E4FEFF1F38730000402292029A1A92461B
S11304B07047C046154B002B00D1114B9D46FFF7EA
S11304C0F3FF00218B460F461148124A121A00F01E
S11304D005F90C4B002B00D098470B4B002B00D098
S11304E098470020002104000D000B4800F02EF86E
S11304F000F06AF82000290001F024F800F03AF82E
S113050000000800000000000000000000060020B9
S1130510E0FEFF1F90020020A105000072B606480D
S11305200649074A02600A6002F092FF02F0D2FF15
S113053062B6FFF7BFFF000080E100E080E200E068
S1130540FFFFFFFF004800474505000010B501000C
S113055000230022002000F01FFA10BD10B50A008D
S1130560002100F0BBF810BD014B18687047C0466D
S113057000FEFF1F084B10B50400002B02D0002121
S113058000F078FA054B1868836A002B00D098476E
S1130590200000F065FCC046750A00000456000007
S11305A070B5074D074C641BA41005D0013CA30093
S11305B0EB589847002CF9D106F0C4FE70BDC04634
S11305C05C7300006073000070B50C4D0C4E761B1C
S11305D0B61005D0002408CD01349847A642FAD1BC
S11305E006F0AAFE074D084E761BB61005D000246F
S11305F008CD01349847A642FAD170BD5873000063
S113060058730000587300005C73000010B5034B6E
S11306100100186800F00CF910BDC04600FEFF1F71
S113062010B5034B0100186800F0ACF810BDC046CB
S113063000FEFF1FF0B5C64600B50F2A43D90B00D4
S1130640032603431E400C000300002E40D1150076
S1130650103D2D09AC462D01A846804400E03B0026
S1130660676825685F60E7681D60DF601F00A56834
S113067010379D6010344345F1D165460F230C2497
S113068001352D01491913404519144223D08C59C1
S1130690AC5104369C1B032CF9D80324043B9B085F
S11306A001339B002240ED18C918561E002A07D0BA
S11306B0002300E02300CA5C5C1CEA549E42F9D18A
S11306C004BC9046F0BD0500561E002AF0D1F7E7A1
S11306D0561E0500ECE71A00F6E7C046F0B5050023
S11306E083074AD0541E002A44D0CEB2030003220A
S11306F002E00135013C3DD301332E701342F8D1A1
S1130700032C2FD9FF220A40150215432A0415434E
S11307100F2C35D92700103F3F093E01B4461E0077
S11307201A0010366644156055609560D560103225
S1130730B242F8D10F260C2201373F012640DB19C3
S11307403700224217D03E1FB608B400A4461A0050
S11307501C1D644420C2A242FCD103240136B6000D
S11307609B193C40002C05D0C9B21C1919700133E7
S11307709C42FBD1F0BD3400F4E714000300BFE752
S11307802700E0E770B50500002915D00C1F236889
S1130790002B27DB280000F0CBF9244B1A68002A31
S11307A005D0A2420CD921686018824224D062602C
S11307B028001C6000F0BEF970BDA34203D81A00E3
S11307C05368002BF9D111685018A0421BD027D8C8
S11307D021686018834207D063605460280000F0E9
S11307E0A9F9E9E7E418D5E718685B688446614429
S11307F0216063605460F1E7106852688446614484
S113080021606260D4E7206809185018116083429F
S1130810E4D118685B688446614411605360DDE785
S11308200C2328002B6000F085F9C5E7FCFEFF1FB0
S1130830F8B50323CD1C9D43083506000C2D2AD2A0
S11308400C25A94229D8300000F072F92A4F3A68E1
S1130850002A0AD013685B1B04D441E023685B1BA5
S11308601FD522005468002CF8D17B68002B3DD0A2
S11308702900300000F042F8431C2AD00323C41C92
S11308809C43A04205D0211A300000F037F8431CE5
S11308901FD0256010E0002DD3DA0C230020336034
S11308A0F8BD0B2B05D86368A2421DD0536003E04A
S11308B014002360E4182560300000F03BF92000A8
S11308C007220B30231D9043C21AE9D01B1AA350F0
S11308D0E6E70C233000336000F02CF90020DFE75A
S11308E00B2BE5D8140053683B60E5E7002130008A
S11308F000F004F87860BBE7FCFEFF1F002370B52E
S1130900064C05000800236000F0ACFA431C00D03C
S113091070BD2368002BFBD02B60F9E78C0200200C
S113092003000A7801311A700133002AF9D17047A3
S113093010B5830727D00378002B26D003000321AA
S113094002E01A78002A1CD001330B42F9D119684D
S11309500F4A104C8A188A4322420FD10433196873
S11309600B4A8A188A43224208D104331968084A78
S11309708A188A432242F1D000E001331A78002A0F
S1130980FBD1181A10BD0300E1E70020FAE7C046C6
S1130990FFFEFEFE80808080F0B546464F46D64678
S11309A0C0B51F002F4B82B01C6805000E00904696
S11309B0002C2DD063681F2B50DC002D1CD0882206
S11309C0A0589146002834D07832825894469A0030
S11309D091468144424649460A6001216246994053
S11309E00A43944680228A46614652008150494611
S11309F0803A8F50022D16D000205A1C02339B00DF
S1130A0062601E5102B01CBC90469946A246F0BDDD
S1130A10154C1C60154B002BCCD01B68019388230C
S1130A20019AE250C6E75546843281580D438550F9
S1130A30E2E70F4B002B11D084204000FFF7E6FDC6
S1130A4000280BD0802200235200835004328350AC
S1130A504B460022E05094466368B8E701204042C8
S1130A60D0E7C04690FFFF1F04FFFF1F00000000F7
S1130A700D060000F0B5DE464E46454657462B4B64
S1130A8088469B46E0B51E6883B00190002E45D091
S1130A9088237568F7586C1E40D40135AD0078334F
S1130AA075199A460AE0002F05D03B00A200803356
S1130AB09B58434505D0043D013C2FD34346002BAE
S1130AC0F1D173682A68013BA34222D000232B6032
S1130AD0002AF0D073689946002F18D0012351469C
S1130AE0A3407958194212D0822040003858A100FE
S1130AF07958009018420ED1019890475B4672686D
S1130B001B684A4501D1B342D5D01E00BEE79047C9
S1130B10F4E77460DCE708009047EFE703B03CBCFF
S1130B2090469946A246AB46F0BDC04690FFFF1FD3
S1130B307047C0467047C04602B471464908490030
S1130B40095C49008E4402BC7047C04603B4714638
S1130B50490840004900095E49008E4403BC7047BF
S1130B6003B47146490840004900095A49008E44BB
S1130B7003BC7047002243088B4274D303098B42A1
S1130B805FD3030A8B4244D3030B8B4228D3030C59
S1130B908B420DD3FF22090212BA030C8B4202D3FB
S1130BA01212090265D0030B8B4219D300E0090A23
S1130BB0C30B8B4201D3CB03C01A5241830B8B422C
S1130BC001D38B03C01A5241430B8B4201D34B0315
S1130BD0C01A5241030B8B4201D30B03C01A52417A
S1130BE0C30A8B4201D3CB02C01A5241830A8B42FF
S1130BF001D38B02C01A5241430A8B4201D34B02E8
S1130C00C01A5241030A8B4201D30B02C01A52414B
S1130C10CDD2C3098B4201D3CB01C01A52418309FF
S1130C208B4201D38B01C01A524143098B4201D339
S1130C304B01C01A524103098B4201D30B01C01A64
S1130C405241C3088B4201D3CB00C01A52418308DE
S1130C508B4201D38B00C01A524143088B4201D30B
S1130C604B00C01A5241411A00D20146524110466B
S1130C707047FFE701B5002000F0F0F802BDC04660
S1130C800029F7D076E7704703460B437FD4002250
S1130C9043088B4274D303098B425FD3030A8B420C
S1130CA044D3030B8B4228D3030C8B420DD3FF2276
S1130CB0090212BA030C8B4202D31212090265D044
S1130CC0030B8B4219D300E0090AC30B8B4201D3F7
S1130CD0CB03C01A5241830B8B4201D38B03C01A3E
S1130CE05241430B8B4201D34B03C01A5241030BB5
S1130CF08B4201D30B03C01A5241C30A8B4201D366
S1130D00CB02C01A5241830A8B4201D38B02C01A10
S1130D105241430A8B4201D34B02C01A5241030A87
S1130D208B4201D30B02C01A5241CDD2C3098B426C
S1130D3001D3CB01C01A524183098B4201D38B01E9
S1130D40C01A524143098B4201D34B01C01A52418C
S1130D5003098B4201D30B01C01A5241C3088B42D1
S1130D6001D3CB00C01A524183088B4201D38B00BC
S1130D70C01A524143088B4201D34B00C01A52415E
S1130D80411A00D201465241104670475DE0CA0F35
S1130D9000D04942031000D34042534000229C46F5
S1130DA003098B422DD3030A8B4212D3FC228901FF
S1130DB012BA030A8B420CD3890192118B4208D3D5
S1130DC0890192118B4204D389013AD0921100E037
S1130DD08909C3098B4201D3CB01C01A524183094B
S1130DE08B4201D38B01C01A524143098B4201D378
S1130DF04B01C01A524103098B4201D30B01C01AA3
S1130E005241C3088B4201D3CB00C01A524183081C
S1130E108B4201D38B00C01A5241D9D243088B4272
S1130E2001D34B00C01A5241411A00D20146634615
S1130E3052415B10104601D34042002B00D5494279
S1130E40704763465B1000D3404201B5002000F0B8
S1130E5005F802BD0029F8D016E770477047C04670
S1130E60FEE7C0460A4A0300116810B5002901D103
S1130E700849116010680849C3188B4206D9FFF766
S1130E8073FB0C2303600120404210BD1360FCE798
S1130E9094FFFF1F9002002090020020837802201C
S1130EA09842804140427047437A0020013B012B25
S1130EB003D90B78013001330B70704703003038CD
S1130EC0092805D91A00613A052A02D8573B1800A7
S1130ED070471A00413A0020052AF9D8373BF6E753
S1130EE0C023184A9B0010B51360174A802413606E
S1130EF0164A812013600023154A64001360154AC2
S1130F0040001360144A1360144A1360144A1360B7
S1130F10144A1360144A1360144A1360144A146088
S1130F20144A1360144A1460144A1360144A136078
S1130F30144A1360144A136003F064F8200003F0A9
S1130F406FF810BD00901454049014540890145475
S1130F500C90145410901454149014541890145465
S1130F601C9014542090145424901454309014540D
S1130F7000A0145404A0145408A014540CA0145435
S1130F8010A0145414A0145434A0145410B5002008
S1130F9003F03CFE002803D00021080003F02AFEE1
S1130FA010BD0000024A1368013313607047C04645
S1130FB03000002010B50721014803F01DFC10BDCE
S1130FC000C007400122024B52421A607047C046DB
S1130FD0A090044037B5002002F071FDC023002426
S1130FE00D4A9B0013600D4A0D4D13600D4A2000FD
S1130FF013600D4B2C716C71AC711A68FA239B0051
S113100053430A492B6003F04FFE2900200001AA34
S113101003F0B0FE37BDC046189014541C9014540D
S1131020080100202490145480FEFF1FD8000020E3
S113103010B5002003F07AFE80230A4A5B00136097
S1131040094A07201360094A136002F0E9FF0620E9
S113105002F0E6FF092002F0E3FF002002F034FD75
S113106010BDC046189014541C9014542490145469
S113107080238120074A5B0010B51360064A4000B4
S11310801360064A1360064A1360064A136002F0AE
S1131090B9FF10BD3090145424901454209014546B
S11310A004A0145408A0145410B5002002F016FD36
S11310B08023054A9B001360044A002004491360FE
S11310C003F08AF810BDC0460CA0145410A01454A8
S11310D0B400002010B5002003F0BAF80020034B40
S11310E01860034B186002F0FEFC10BD0CA01454F1
S11310F010A01454014B1B887047C04674FEFF1F98
S113110010B5040002F07EFFC82002F0A2FA20000D
S113111002F086FFC82002F09CFA10BD0FB41FB580
S113112006AB02CB00200393402303AA0093084B91
S113113002F048F8002807DA0020064901F066FFAB
S113114005B008BC04B01847052002F082FAF7E79E
S1131150EDFFFF1F9571000010B50400002901D0B8
S1131160FFF7BEFE0021022001F0A0FA21000420B6
S113117001F09CFA002802D00148FFF7CFFF10BD10
S113118032560000F8B50E00040026481500FFF79B
S1131190C5FF2548FFF7C2FF320021002348FFF7AF
S11311A0BDFF234B23481968234B244E1A68244B54
S11311B0244F1B68FFF7B2FF234B244CF9582448F3
S11311C072693368FFF7AAFF21786278A37921480E
S11311D0C9B2D2B2DBB2FFF7A1FF1F4B217A227E44
S11311E01B781E48C9B2D2B2DBB2FFF797FF1C4B83
S11311F01C4819785A781C4BC9B21B69D2B2FFF744
S11312008DFF1A4B1A4899781A4BC9B2FA58736869
S1131210FFF784FF184B2A7819681848FFF77EFFF8
S1131220F8BDC04690560000D0560000025700009A
S113123078FEFF1F3657000080FEFF1F00D00340DA
S113124088FEFF1F007004403C1000000040064070
S11312506D570000A357000000500640D25700000D
S113126000E007400258000000ED00E000D0074015
S11312703C58000034100000300000207458000076
S113128010B501F0CFFE0028FBDB10BD70B5FFF7F1
S1131290F7FF0400FFF7F4FFFF26050020003040AD
S11312A0FFF70CFE040028003040FFF707FE24017E
S11312B02018C0B270BD70B5FFF7E2FF0600FFF75B
S11312C0DFFF0500FFF7DCFF0400FFF7D9FFFF2273
S11312D0FA23642116401540303E14409B00303DF3
S11312E04D4373435A39303C4C435B1910401B192E
S11312F03038181870BD0000F0B591B01C0016AB62
S11313000C91197817AB05921A7818AB1B78050065
S11313100D931CAB1B780EA80E931DAB1B880F1CE2
S1131320099321231B18DB7F08931FAB1B880F93A2
S113133020AB1B780A93914200D9171C059BFFB27E
S1131340002C05D1002B05D15448FFF7E7FE01E03E
S1131350002BF9D1280000252E00514B1B88FFF7E4
S1131360DDFE099B04950293069500230793079BD2
S1131370199A934200DC8FE00E9B002B04D00137B6
S11313800D9BFFB29F42F0D9069B3100F2184548ED
S1131390FFF7C4FE322002F05CF93200089B049986
S11313A04148FFF7BBFE322002F053F929003F48C1
S11313B0FFF7B4FE322002F04CF911B0F0BD039BEC
S11313C02C22FB180B936B469B18187801210C9B5D
S11313D09847002848D1029B099A0136934204D9C0
S11313E0643B9BB202932E4B1B88002C27D0E368EE
S11313F0089A9B789B1A5A425341049AD31804932F
S11314000A9B002B0BD0E268E368E06803998078BC
S11314105B781278791800902548FFF77FFE1B9BB4
S1131420002B02DD180002F014F9039B013303932F
S1131430039B1A9A9342C2DB079B013396E7059BF1
S1131440089A9B789B1A5A425341049AD3180493DE
S11314500A9B002BE3D0059B16489A78039BD2B2D3
S1131460F918FFF75BFEDAE7022810D10B9912484E
S1131470FFF754FE069B0F9A01330693029B934297
S1131480CDD264339BB20293054B1B88C7E7033864
S1131490434258412D18C2E70023C8E7A258000070
S11314A074FEFF1F1C5900003459000065590000E8
S11314B0CF580000F45800000959000070B50C0022
S11314C0160088B00CAA157806A908800A4A05A84F
S11314D005700A4D12682D684A6004AA16700193BB
S11314E0009023000020029502F0DAFF002800D0CB
S11314F0022008B070BDC04678FEFF1F7CFEFF1FAF
S1131500F7B56A46CB1DDB08DB00D31A02AF9D4654
S11315100C000500FFF75EFD0021094B02AE1B68BD
S11315202A00019300943300080003F07FFC0400B8
S1131530FFF77EFD002C00D00424BD462000F2BD40
S113154084FEFF1FF0B5C9B02FAC07220021200094
S1131550FFF7C4F8DE4A0125349203221FAB3F9300
S113156021AB409323AB429327AB449329AB4593E0
S11315702BAB46932DAB25AE14A90020479334AB77
S11315801A713691199325704194439602F07AFAB0
S1131590280002F077FA8022CE4B12021A6002F081
S11315A077F8002300951A001900180001F04AFD8D
S11315B0C948FFF7B3FDFA20800002F04AF8C74893
S11315C0FFF7ACFDFA20800002F043F8C448FFF7AF
S11315D0A5FDFA20800002F03CF8C24A2B0002214B
S11315E0C14802F079F82900280002F081F80020AF
S11315F003F0ACFAAC210027BC4B3800319308ABA4
S11316005B181F80023108AB5B1831A91F7032953B
S113161003F0C8FA2A00390014A8FFF75FF8702015
S11316202F9B08A92393A28809180A80A279023063
S113163008A909180A700322063808A909180A70AB
S11316402593A2880C38B280A27908A9B271052228
S113165032701F93A28809180A80A279023008A95F
S113166009180A705C21022608AA521816702193E0
S1131670A288063008A909180A80A279801908A945
S113168009180A700422063808A909180A70279351
S1131690A2881C3008A909180A80A279801908A90F
S11316A009180A707C2108AA5118082288200A7097
S11316B02993A28808A909180A80A279801908A97F
S11316C009180A708422092108A8801801702B9334
S11316D0A3880C3208A880180380A379922408A850
S11316E0001903700A2308A8063C0019037094200B
S11316F008AB1B1819AA1F703FA82B0002F04EFA62
S11317007B48FFF70BFD3900300000F0CFFF0822C3
S11317109043C0B2B84202D07648FFF7FFFC764847
S1131720FFF7FCFC7548FFF7F9FC7549754802F0B2
S11317304FFC754C2000FFF7F1FCC023734A9B005B
S11317401360734A73481360734A1360FFF7E6FC2F
S1131750FFF7C6FB2000FFF7E1FC80204000FFF705
S1131760CFFC80204000FFF7CBFC80204000FFF737
S1131770C7FCE1217720C90001F006F9E1213220FC
S1131780C90001F0A5FA00220221100001F0B8FA04
S1131790002800D13BE16148FFF7C0FC332308AACD
S11317A09B1819000D2001F099FA002800D130E1AE
S11317B05B48FFF7B3FC332208AB9B1819780C2362
S11317C099430B000821194308AB9B180D2019708D
S11317D001F08DFA071E534800D15348FFF79EFCD1
S11317E0E1218120C900400001F012F801224F4B91
S11317F04F481A70FFF792FC00230D930F930333A5
S11318000E934C4C0D99208814AA80B2FFF7BAFCB1
S11318104948FFF783FC4948FFF780FC4848FFF735
S11318207DFC4848FFF77AFC4748FFF777FC4748B8
S1131830FFF774FC4648FFF771FC4648FFF76EFC5F
S11318404548FFF76BFC4548FFF768FC0D990E9A75
S11318504348FFF763FC4348FFF760FC4248FFF747
S11318605DFC4248FFF75AFC4148FFF757FC4148EA
S1131870FFF754FC4048FFF751FC4048FFF74EFC8B
S11318803F48FFF74BFC3F48FFF748FC3E48FFF753
S113189045FC3E48FFF742FC3D48FFF73FFC3D480E
S11318A0FFF73CFC3C48FFF739FC3C48FFF736FCAB
S11318B0FFF7E6FCFF21060001400A2901D100F0F0
S11318C061FE08004638342800D9E7E068E0C046E5
S11318D0A90E0000800200207A59000095590000EA
S11318E09B59000064FEFF1FC8FEFF1FE0070100B4
S11318F0A4590000C9590000FD590000055A000010
S113190094FEFF1F8CFEFF1F2B5B000000901454FD
S113191004901454225A000008901454435A0000AE
S11319208E5A0000D95A0000FF5A0000ECFFFF1F36
S1131930265B000074FEFF1F325B00003C5B00006E
S1131940595B0000755B0000915B0000AE5B00001A
S1131950D55B0000F45B0000205C00004B5C0000E1
S11319606E5C00009D5C0000B95C0000DD5C000062
S1131970015D0000285D0000505D00006E5D000008
S11319808B5D0000AA5D0000C95D0000E35D0000FE
S1131990FD5D0000345E00005F5E00008A5E0000B2
S11319A0FFF7D4F833037C007C007C007C007C00CF
S11319B07C007C007C007C00EA057C002E037C001B
S11319C07C007C007C007C007C007C007C007C0033
S11319D07C007C007C007C007C003D007E0090004C
S11319E0A000AA00B300EB00F6007C00070164012C
S11319F071017101AB012FFFAE017C00BA01C3017B
S1131A005002B502C2027C00D0027C00D802C94850
S1131A10C2E6C948CDE6C94B0F930223F0E6C84895
S1131A20FFF77CFBC748FFF779FBC748FFF776FB56
S1131A30C648FFF773FBC648FFF770FBC548FFF7BE
S1131A406DFBC548FFF76AFBC448FFF767FBC44852
S1131A50FFF764FBC348FFF761FBC348FFF75EFB76
S1131A60C248FFF75BFBC248FFF758FBC148FFF7CA
S1131A7055FBC148FFF752FBC048FFF74FFBC04876
S1131A80FFF74CFBBF48FFF749FBBF48FFF746FB96
S1131A90FFF7F6FBFF2101406229BCD0BB480EE0F2
S1131AA0BB48FFF73BFBFFF706FCBA4BBA4A18608A
S1131AB01968914201D1B94A1A601968B848FFF708
S1131AC02DFB9EE6B748FFF729FBFFF7F4FBB64B67
S1131AD0B14A18601968914201D1B04A1A60196874
S1131AE0B248ECE7B248FFF719FBFFF7E4FBB14B50
S1131AF018601968B048E2E7B048FFF70FFBFFF73A
S1131B00C5FB01000D90AE48D9E7AE48FFF706FBD0
S1131B10FFF7BCFBAC4D010004002800FFF7FEFA00
S1131B20AA48FFF7FBFAFFF7B1FB1BAE01003070C8
S1131B302800FFF7F3FAA648992C37D0954B37AD18
S1131B401B682C803893A34B1A881B88FFF7ACFAC8
S1131B500D9B1DAA1370A04B29001B680020029343
S1131B6001230096019302F09BFC011E02D09B48C6
S1131B70FFF7D4FAFFF7AEFA43E69948FFF7CEFA37
S1131B80FFF799FB80B220802188964889B296E7B6
S1131B909548FFF7C3FA954C2000FFF7BFFA2000E1
S1131BA0FFF7BCFA9248FFF7B9FA9248FFF7B6FA82
S1131BB027E60D999048FFF7B1FAFFF761FB109003
S1131BC08E48FFF7ABFAFFF75BFB11908C48FFF7E9
S1131BD0A5FAFFF755FB12908A48FFF79FFAFFF723
S1131BE06AFB06008848FFF799FAFFF764FB0500D3
S1131BF08648FFF793FAFFF75EFB04008448FFF77B
S1131C008DFAFFF743FB2B000D9A13900E99814830
S1131C100096FFF783FA6F4B0E9A1B889BB2032A38
S1131C2020D0129807933038421E90410A901098A1
S1131C30139A3038431E98417523069002931198E5
S1131C40583B01930D9BA4B2303808920490009342
S1131C503A4A002370497148099405960395FFF7A1
S1131C604BFB87E76E48FFF759FA83E76D48FFF7A8
S1131C7055FA012420000021FFF76EFA21003C20D0
S1131C80FFF76AFAF6E75848FFF748FA6648FFF79D
S1131C9045FAFFF7FBFABC2308AAD2181070634870
S1131CA0FFF73CFAFFF707FBBC2308AAD3181A78FE
S1131CB02388F6B2050001009BB26C2E10D15C485B
S1131CC0FFF72CFA0024AC4200DB9AE537AB1A7814
S1131CD000230121FF200093FFF7F0FB0134F2E71A
S1131CE05448FFF71BFA0024AC4200DB89E50121CC
S1131CF037A8FFF705FC0134F6E72388238880E53D
S1131D000021022000F0D2FC071E00D179E54A48E8
S1131D10082F00D175E549E70021082000F0C6FC32
S1131D204648002F00D16CE540E72F48FFF7F6F94D
S1131D3043483BE7685A0000B35A0000C2FFFF1F44
S1131D409D5E0000A85E0000E65E0000285F0000C3
S1131D50695F0000A95F0000E95F000026600000E1
S1131D6065600000A3600000E06000001E610000E8
S1131D704B6100008A610000C7610000046200003A
S1131D803F6200007C620000B9620000CD62000086
S1131D90E962000078FEFF1F0F27000010270000F3
S1131DA0176300003763000080FEFF1F65630000B7
S1131DB07F63000088FEFF1FAE630000C96300005C
S1131DC0FF63000016640000496400005F640000C3
S1131DD08864000074FEFF1F7CFEFF1FAE640000D9
S1131DE0CF640000086500003765000065650000E9
S1131DF095650000C6650000F865000032660000C5
S1131E005B66000074660000B3660000DF660000D5
S1131E101767000048670000E92900008567000093
S1131E2091670000C2670000E567000004680000D5
S1131E30246800006F680000BA6800001869000098
S1131E407569000037A9002001F0E4FDFA213798F4
S1131E508900FEF78FFE0100DB48FFF75FF902F00F
S1131E6033F80100D948FFF759F901F0BFFC01002C
S1131E70D748FFF753F9D74BD74819684B1E9941F8
S1131E80FFF74CF9002001F024FE0100D348FFF7CE
S1131E9045F9002001F02CFE0100D148FFF73EF97E
S1131EA0002001F02AFE0100CE48FFF737F9002098
S1131EB001F0F8FD0100CC48FFF730F9012001F0F2
S1131EC0F1FD0100C948FFF729F9C94BC948196850
S1131ED04B1E9941FFF722F9002001F0EBFD0100B0
S1131EE0C548FFF71BF9C54BC54819684B1E9941F6
S1131EF0FFF714F9C34BC44819684B1E9941FFF707
S1131F000DF9002001F0FEFD0100C048D7E50F9B4C
S1131F10BF48002B00D149E6BE48FFF7FFF8FFF7A2
S1131F20B5F90F9B58706CE4BB48FFF7F7F8032131
S1131F30052000F0BBFB002F02D0B848FFF7EEF8F5
S1131F40B74833E6B748FFF7E9F8B74801F081FB33
S1131F50B6482BE6B648FFF7E1F8FFF791F9C0B2AF
S1131F60683843425841C3B2B2480D93FFF7D6F8DC
S1131F70FFF7A1F984B22100AF48FFF7CFF8082298
S1131F802421012000F064FD0600AC48FFF7C6F8E8
S1131F900025AB4BAB48595D6F1CC9B2FFF7BEF8C7
S1131FA0282D29D0A848FFF7B9F83D00292FF0D1F2
S1131FB0A648FFF7B3F8A648FFF7B0F8A548FFF71F
S1131FC0ADF8A548FFF7AAF80027A44D39002A6800
S1131FD0A3486B68FFF7A2F80D9800F07FFD29680D
S1131FE033006A689F48FFF799F8002C02D020005C
S1131FF001F02FFB0137E8E79748FFF78FF8D7E7A1
S11320009948FFF78BF89948D0E59948FFF786F887
S11320109848FFF783F89848FFF780F8FFF730F9FE
S113202004009648FFF77AF8FF231C40200031385B
S1132030052800D99DE2FEF793FD0600FA01580237
S11320407802840296029F2304211AA81A9300F0AE
S1132050F5FB00285DD08A48FFF760F8894D062219
S113206029001DA8FEF7E6FA06211DA800F0E6FBEC
S1132070002859D08448FFF751F8A91D05221BA850
S1132080FEF7D8FA05211BA800F0D8FB002854D08D
S11320907E48FFF743F8052315A80221038000F0CA
S11320A0CDFB002850D07948FFF738F8482316A80C
S11320B00221038000F0C2FB002800D1F2E0734843
S11320C0FFF72CF8612317A80221038000F0B6FB68
S11320D0002800D126E16D48FFF720F8812318A8D5
S11320E00221038000F0AAFB002800D15AE16748CE
S11320F0FFF714F8634906220B3137A8FEF79AFA62
S1132100062137A800F09AFB071E00D189E15F4839
S11321104CE55F4B5F48D968DA68DB689278DB7816
S11321204978FEF7FBFF99E7594B5B48D968DB68B0
S113213009795A79FEF7F2FF9FE7554B5748DB6858
S11321401979FEF7EBFFA6E7514B2100DA685278C4
S11321507F2A00D83021DA6850782200400600D463
S11321603022DB6810945878830601D4302310930E
S11321704748A446C5686D78EB0601D43025AC46C3
S1132180C06825004078030700D430254048C6685D
S1132190777826007B0700D43026C0682700407873
S11321A0830700D4302701233948C0684078039757
S11321B0184063463030049000933948109B0296CF
S11321C00195FEF7ABFF71E7A1690000B369000058
S11321D0C96900003C80845EF0690000016A000067
S11321E0126A0000236A0000376A00004B6A00008C
S11321F03C8004505F6A0000706A00003480845997
S1132200816A00003480045A926A0000A46A0000C3
S1132210B56A0000F36A00002B6B0000566B0000E7
S1132220B56B0000D56B000010270000F46B0000B4
S1132230FE6B0000276C00006F6C0000A76C0000B0
S113224098FFFF1FC46C0000CB6C0000CE6C000034
S1132250F86C0000206D00001364000000D00340FF
S1132260456D0000586D0000696D00008B6D000025
S1132270AB6D0000056E00003C6E000014640000AD
S1132280516E0000DC5500009E6E0000FB6E0000E5
S1132290CCFFFF1F7D6E0000D16E0000276F000091
S11322A03A6F0000B94B2100DA6852787F2A00D8CF
S11322B03021DA6850782200400600D43022DB68EE
S11322C010945878830601D430231093AF48A44661
S11322D0C5686D78EB0601D43025AC46C06825008E
S11322E04078030700D43025A848C66877782600CC
S11322F07B0700D43026C06827004078830700D4C9
S113230030270123A148C0684078039718406346EA
S11323103030049000939E48109B02960195FEF77E
S1132320FDFECFE6994B2100DA6852787F2A00D867
S11323303021DA6850782200400600D43022DB686D
S113234010945878830601D4302310938F48A44600
S1132350C5686D78EB0601D43025AC46C06825000D
S11323604078030700D430258848C668777826006B
S11323707B0700D43026C06827004078830700D448
S1132380302701238148C06840780397184063468A
S11323903030049000937F48109B02960195FEF71D
S11323A0BDFE9BE6794B2100DA6852787F2A00D87B
S11323B03021DA6850782200400600D43022DB68ED
S11323C010945878830601D4302310936F48C5685D
S11323D06E782500F30600D43025C06826004078C6
S11323E0030700D430266948C7687F78BC46634633
S11323F027005B0700D43027C0684078830700D4E7
S1132400302401236148C068407803941840303078
S11324100490109B6048029701960095FEF77EFE9B
S113242068E65A4B5D48DB685979FFF748FB5C491D
S11324301522113137A8FEF7FDF8152137A800F051
S1132440FDF9071E00D062E6504C5648E3685979FE
S1132450FEF764FEE36854489979FEF75FFEE3688B
S11324605248D979FEF75AFEE3685148197AFEF7C3
S113247055FEE3684F48597AFEF750FEE3684E482C
S1132480997AFEF74BFEE3684C48D97AFEF746FE8C
S1132490E3684B48197BFEF741FEE3684948597BE2
S11324A0FEF73CFEE3684848997BFEF737FEE36895
S11324B04648D97BFEF732FEE3684548197CFEF7AF
S11324C02DFEE3684348597CFEF728FEE368424842
S11324D0997CFEF723FEE3684048D97CFEF71EFE94
S11324E0E3683F48197DFFF7EAFA00241C22210023
S11324F038A83794FEF7F2F82021200037AA00F01C
S1132500DDF90400011E19D13648FEF707FE37AB8A
S11325102100E25C3448FEF701FE0134052001F09D
S113252098F8202CF3D1FFF76CF9304B37A81B78BF
S11325300121037000F082F9011E17D02C48FFF727
S1132540BEFA00241C22210038A83794FEF7C6F8EE
S1132550210037AD695401312029FBD12A00002024
S113256000F0DEF9E8E700F007FAE5E72148FFF7B5
S11325701DFB2148FFF71AFB2048FEF7CFFD20483A
S1132580FFF714FB1F48FFF711FBC046CCFFFF1FEA
S1132590576F0000756F0000726F0000956F0000A8
S11325A0DC550000A36F0000B86F0000CD6F000081
S11325B0E26F0000F76F00000C7000002170000053
S11325C0367000004B7000006070000075700000F1
S11325D08A7000009F700000B4700000C970000091
S11325E0DE700000146400000F710000937100009D
S11325F0F37000001B71000020710000696D000081
S1132600367100006171000013B572B6882200248F
S113261080211D4B52019C509A58890501921B4AF6
S113262098580143995099581948019119490C60D7
S1132630096801919958014099509B5820000193D1
S113264001F020FA012001F025FA2100124801F0DE
S1132650BFFC8022114B52001A60B022104B1203AF
S11326601A6080220F4BD2051A6080220E4C1A6029
S11326702000072102F0C0F807220321200002F005
S1132680A7F8019B13BDC046007004403C10000035
S1132690FFFFFFDF00D00340B8FEFF1F009014547B
S11326A000901C5800E100E000C0074070B50C0029
S11326B00A25082822D8FEF73FFA0523364B667F01
S11326C08F9D740001F000FC0525012816D0FEF74B
S11326D0EBFC02210122A0B200F012FBFEF7FAFC8F
S11326E0FFF792FF0021080001F07AFA01210400AB
S11326F0002000F0FDFF002C28D10025280070BD2B
S113270001F0E2FB06250128F8D0FEF7CDFC0221FA
S11327100122A0B200F0F4FAFEF7DCFCFFF774FF2C
S113272000210120E0E701F0CFFB08250128E5D0D6
S113273001F05CF8002803D00121002000F0D8FF4C
S11327400021022001F04CFA0028D6D00925D5E753
S113275001F0BAFB07250028D0D0FEF7A5FC022122
S11327600122A0B200F0CCFAFEF7B4FCFFF74CFF54
S11327700021032001F034FA040001F0A5FB01213B
S11327800028B8D1B5E7FEF78FFC02210122A0B2E0
S113279000F0B6FAFEF79EFCFFF736FF0021042096
S11327A0E8E70021082001F01BFA051ECED1012123
S11327B0080000F09DFFA1E7FEF776FC022101224C
S11327C0A0B200F09DFAFEF785FCFFF71DFF002183
S11327D0052001F005FAB9E7FEF766FC02210122A3
S11327E0A0B200F08DFAFEF775FCFFF70DFF002193
S11327F00620EEE7FEF758FC02210122A0B200F009
S11328007FFAFEF767FCFFF7FFFE00210720E0E7F1
S1132810064B074A58609A60064ADA6040221A61F9
S11328209982054BC0321A607047C046CCFFFF1F27
S1132830740000203400002008A01454F7B51D4C87
S1132840060023690D0003278B422AD3A08A80B295
S1132850FEF750FCFEF70CFC002319009D4202D049
S113286022699A421FD8606801F0CCFB322000F044
S1132870F0FE606801F0D4FBFEF7ACFB0E49A268E1
S1132880E3680968009501910021080002F0CEFA7E
S11328900700FEF7CDFB606801F0B4FB002F00D009
S11328A002273800FEBDA268F05CD054E268D1541F
S11328B00133D3E7CCFFFF1F84FEFF1F70B5040074
S11328C00D001600032090B03C291ED83C220021A4
S11328D001A8FDF703FF03236A4613703F22A308F0
S11328E093436A46537078220F20630813406A4664
S11328F00440291D68469370D470FFF79FFF002899
S113290003D103000549AB4201D110B070BDCA68C0
S1132910D2181279F2540133F5E7C046CCFFFF1FF9
S1132920F0B507000D001600032091B03C291BD818
S113293000243C22210001A8FDF7D0FE02236A46B0
S113294013703F22BB0893436A46537078227B0876
S11329500F2013406A4607409370D770AC4205D1EC
S11329606846211DFFF76AFF11B0F0BD2200315DFA
S11329706A4411710134F1E7C72307B5012101A8A5
S11329800370FFF75BFF0EBD014B5870D980704791
S1132990C2FFFF1F70B5114B88B05A7806AC228075
S11329A00F4A05AD126804AE079231702870D888BA
S11329B080B2FEF79FFBFEF777FB0A4B2A001B68E9
S11329C021000293012300200193009601F068FD89
S11329D0002800D0022008B070BDC046C2FFFF1F0F
S11329E078FEFF1F7CFEFF1F10B588B06946134AAE
S11329F00300127803200A75F22B1DD8104A06AC86
S1132A00517821800F490968079169460B75D08870
S1132A1080B2FEF76FFBFEF747FB0B4B0B4A1B68BC
S1132A2021000293012300920020019305AA01F0E2
S1132A3044FD002800D0022008B010BDBB71000086
S1132A40C2FFFF1F78FEFF1F7CFEFF1FC4FFFF1F96
S1132A50F0B505001F4E85B0F088140080B20F0059
S1132A60FEF748FB29007220FFF794FF390001901C
S1132A707420FFF78FFF2100002402907020FFF7DD
S1132A8089FF25000390200077380121C0B2FFF7A9
S1132A90ABFFB378104FDBB205433B550134EDB2C5
S1132AA0192CF0D1200038380121C0B2FFF79CFF67
S1132AB0B3780543DBB23B550134EDB22A2CF1D196
S1132AC0029B01981843039B034318002843C0B298
S1132AD005B0F0BDC2FFFF1F98FFFF1FF0B54A4FBE
S1132AE085B00190F88880B2FEF704FB252174209C
S1132AF0FFF750FF012105001F20FFF775FF01219B
S1132B0002902020BE78FFF76FFF0121039021205F
S1132B10BC78FFF769FF029A03992A431143BB78F3
S1132B200843C0B2F6B2E4B2DBB2002839D0374869
S1132B30FEF7F4FA01212220FFF756FF324E0290ED
S1132B4001212320B778FFF74FFF012103902420B0
S1132B50B478FFF749FF029A0399B3780A432A43EA
S1132B601043C0B2FFB2E4B2DBB200282BD0274836
S1132B70FEF7D4FA01212520FFF736FF01210700D3
S1132B802620B478FFF730FF0743B2783D43EDB217
S1132B90E4B2D2B2002D28D01C48FEF7BFFA05B02B
S1132BA0F0BD019A002A05D0220031001848FEF732
S1132BB0B5FABFE71B1124011C4331031548214317
S1132BC0FEF7ACFAB6E7019A002A05D022003900D4
S1132BD00F48FEF7A3FACDE71B1124011C43390368
S1132BE00C482143FEF79AFAC4E7019B002B04D05A
S1132BF021000948FEF792FAD1E724022100054892
S1132C001143FEF78BFACAE7C2FFFF1FBD71000034
S1132C10C4710000DB710000CB71000070B5124B71
S1132C2088B05A7806AC2280104A05AE126830701B
S1132C300792D8880D0080B2FEF75CFAFEF734FAEA
S1132C400B4B21001B6832000293012300200193E7
S1132C50009501F032FC0400FEF73CFA002C00D091
S1132C600224200008B070BDE4FFFF1F78FEFF1FA0
S1132C707CFEFF1F70B5134B88B05A7806AC2280D7
S1132C80114A04AD126805AE079231702870D888D5
S1132C9080B2FEF72FFAFEF707FA0C4B21001B68EF
S1132CA02A000293012300200193009601F0F8FB0F
S1132CB00400FEF70FFA002C00D00224200008B014
S1132CC070BDC046E4FFFF1F78FEFF1F7CFEFF1FA0
S1132CD0014B5870D9807047E4FFFF1F030010B503
S1132CE003202F2B02D81800FFF798FF10BD030014
S1132CF010B503202F2B02D81800FFF7BBFF10BD1F
S1132D008023F0B585B004000D00032001925B011F
S1132D109C424CD202AB5E1D31000A30FFF77EFFAD
S1132D20002844D102AB991D0E30FFF777FF00282D
S1132D303DD102ABDF1D39000F30FFF76FFF0028D4
S1132D4035D1132331780D30994329433170FFF77E
S1132D5091FF00282BD1102502AB99790E30A9439D
S1132D609971FFF787FF002821D1210A0C30FFF762
S1132D7081FF00281BD1E1B20B30FFF77BFF002855
S1132D8015D13B78019A1900A943002A01D02900E2
S1132D90194302AB0F20D971FFF76CFF002806D14D
S1132DA0102133780D3019433170FFF763FF05B0FC
S1132DB0F0BD0369C268934201D880681B18013BC7
S1132DC0981A7047F7B58368C46801931F1B43685A
S1132DD005000E001819A418974207D83A00FDF709
S1132DE029FC019B6868E41A2200F119FDF722FC12
S1132DF0EC60F7BD0023F7B506001700C568019124
S1132E0000933369B4689D421FD2013B5B1B641B72
S1132E10BC4200D93C009C4200D91C0073682200CB
S1132E2058190199FDF706FC009B2D191B190093F5
S1132E30019B3F1B1B190193B368AB4200D10025D2
S1132E40F560002FDDD10098FEBD1B19DDE7000001
S1132E50022310B50F4C104A236163610F4BA2612A
S1132E60E3616423A2640E4A2362E2640023042221
S1132E70A3626362E362A3656365E365226509494E
S1132E80E01DFDF74DFD20000749FDF749FD202316
S1132E90A37110BD10010020E07100008C0100201E
S1132EA088010020E9710000ED710000F0B5274BA6
S1132EB085B01B780E0002900192002B01D1FFF720
S1132EC0C7FF1823029A00255343204AD3185A6D8A
S1132ED09C6D0392944219D91B6D019D1B1B9D424D
S1132EE000D91D001827029B30005F43174B2A00AE
S1132EF0DF19FB6C76191919FDF79CFB019B64190A
S1132F005B1B01933B6DA34200D10024039B019FF3
S1132F101B1B9F4200D91F00002F0CD01823029ABC
S1132F2030005343094AED19D318D96C3A000919F2
S1132F30FDF780FBE419002D05D01823029A0348FD
S1132F405343C0188465280005B0F0BD100100206B
S1132F5010B50B00EFF31084012181F310881900E0
S1132F60FFF7A4FF84F3108810BD0000F8B5160025
S1132F701822451C55434243164B0F005D199B18FC
S1132F80DC6A012C10D0022C1BD0002C1FD128008D
S1132F90FFF70FFF864205D8320039002800FFF7FB
S1132FA011FF34002000F8BD2800FFF702FF3400B1
S1132FB0864200D90400220039002800FFF702FFEE
S1132FC0F0E732002800FFF715FF0400EAE70024C9
S1132FD0E8E7C04610010020F8B50B4B04001B784D
S1132FE00E001700002B01D1FFF732FFEFF310851D
S1132FF0012181F310883A0031002000FFF7B6FF69
S113300085F31088F8BDC0461001002070B5050096
S113301008000C00FDF78CFC210002002800FFF7DB
S1133020DBFF70BD13B56B46DC1D012221000020BF
S1133030FFF78EFF012801D1207816BD0120404200
S1133040FBE70000F7B5164C0193237805000F0049
S11330501600002B01D1FFF7FBFE2369AB421CD9FC
S1133060EFF31082012181F31088002D0CD0182376
S1133070691C59436B43675061184E600199E3180A
S1133080196200219962596218204543089B64190A
S1133090E36282F310880020FEBD01204042FBE77A
S11330A010010020826810B504004068531C83425C
S11330B005D820688154A360E3680133E360A26803
S11330C063689A4209D121682069FFF785FFA368E4
S11330D0984203D001235B42E36010BD0023A36048
S11330E0FBE70000F0B5050017000800012685B0D5
S11330F00A9C02910093B84219D2009A0196964212
S113310000D2019201230B9A1A4003920B9A1A429D
S113311002D1002C10D10024EB680126002B4BDBDC
S1133120009B012B1FD9013B00937E43F8E7390034
S1133130FDF720FD0136DEE70B9B20269B0704D517
S1133140009B1036002B00D0103E019BA342E3D21B
S113315031002800FFF7A6FFEB68013C002BDBDB06
S1133160002CF2D1D7E731000298FDF703FD874226
S1133170DBD902983100FDF783FD114B0291195CF4
S11331802800FFF78FFFEB68002B05DB39003000C8
S1133190FDF7F0FCBE4211D2039B002B0CD0002C97
S11331A00AD0019BA34207D220212800FFF77AFF0F
S11331B0EB68013C002BF2DA05B0F0BD0600D8E75D
S11331C0F4710000F0B58FB007900E001800149948
S11331D015000693FDF7C2F9069B079A0993149B01
S11331E00D920A9300230B930C9331780136002936
S11331F007D10C9B0293002B00DD09E10C980FB062
S1133200F0BD252900D0B3E000270822042006E001
S1133210302B0DD1022300E001231F430E0033782D
S1133220711C2D2BF8D0F3D8232B10D02B2B0CD0C2
S113323000240A213378721C18003038092808D871
S11332404C43303C16001C19F4E70743E6E71743E8
S1133250E4E7002102912E2B0ED116000A203278C9
S1133260711C1300303B092B06D8029B0E0043430C
S1133270303BD3180293F2E7042331780A00013675
S11332809A43682A01D13178F8E7782909D86F2957
S11332900BD8632967D017D8252969D0582900D1BC
S11332A095E00C9B002BA0DAA3E7703908000829ED
S11332B0F7D8FDF74BFCA500F6FFF6FF9400F6FFE8
S11332C08300F6FFF6FF8C006429EAD12B681A1DEF
S11332D01B682A60DA17981803930123504004935B
S11332E0092849DC029B049A0593934200D2059273
S11332F0002C05D0039B002B01DB7B0700D5013C90
S113330002231F4202D0029B002B05D001231F423F
S113331002D1002C36D100240C9B0493002BC0DB7B
S1133320039B002B3ADA2D215B42039309A8FFF794
S1133330B9FE0C9B002BB4DB03233B40022B05D1CD
S1133340029B002B02D1002C2CD100240C9B049353
S1133350002BA6DB0A22029B03990197009409A87B
S1133360FFF7C0FE9DE72B6819681A1D2A60C9B2D1
S113337009A8FFF797FE94E70A21FDF785FC049B53
S11333800133ACE7059BA342C6D2202109A8FFF76D
S113339089FE0C9B013C002BBBDABDE77B07C8D53B
S11333A02B21C3E7059BA342D0D2302109A8FFF704
S11333B079FE0C9B013C002BC5DAC7E70A22296879
S11333C001970B1D2B60029B00940968C7E72968CD
S11333D001970B1D2B60029B00941022F5E72B68CC
S11333E01A1D2A601C6821780134002900D158E78D
S11333F009A8FFF757FE0C9B0293002BF3DA50E762
S113340029680B1D2B600023019308330093E4E724
S11334100B9A002A03D006990798FFF7DDFD0C9B51
S113342002930B9B0393039A029B944663440C936D
S1133430E4E610B5002000F001FE10BD10B5002038
S113344001F000FC10BD10B5002001F021FA10BD00
S1133450082310B5164A9178194202D091780B438B
S11334609370882100222220124B49015A5012499C
S1133470124C0870802012494002585019681148B3
S113348001401960195910480840C02189040143BA
S1133490195180210D4B1A7219767F391A7059709F
S11334A00B490A700C3299791142FCD110BDC04607
S11334B000D007400070044000E007400410000002
S11334C044100000FFFFF3FFFFFFFFF00040064041
S11334D0005006401249134810B5814205D000221D
S11334E0114B9B089B009A420FD1104B104A9960D4
S11334F0002310491048521A9A420AD100210F4B56
S11335000F4AD21A013A08D210BD84588C500432A2
S1133510E9E7CC5CC4540133EEE719700133F1E7F9
S113352000000000000000000000000000ED00E0CA
S1133530407400006073000000FEFF1FE0FEFF1FE8
S113354090020020030041700020187058609860B9
S1133550704710B5437804000120FF2B08D000F019
S1133560E5FA63780133DBB2637000F0D3FA00202C
S113357010BD0020704770B504000D0000F0D6FAAD
S1133580E1682943E16000F0C5FA002070BD000045
S113359000220A4B9A641A0040329A631A003032AD
S11335A09A621A0020329A611A0010329A60044A10
S11335B01360044B9B60DB607047C046F40100203D
S11335C0F0010020440200200022024B1A60186817
S11335D080B270470C007C5070B5437804000D0035
S11335E0002B0BD0002500F0A1FA6378013BDBB27D
S11335F06370257000F08EFA280070BD0220002947
S1133600FBD02378002B17D0FFF7DEFF6368A26896
S1133610834204D8C01A824206D30320EDE7C01ABD
S113362080235B02C018F6E700F080FA00232370C1
S113363000F070FA0220E0E74B1CEED000F076FABE
S11336400123237000F066FAFFF7BEFFA5606060F7
S1133650E3E770B50500FFF7B7FF802604007602A4
S1133660FFF7B2FF0300844203D8031B9D42F7D245
S113367070BD301BC318F9E710B5012801D100F063
S113368055FA10BD10B5012801D100F043FA10BD60
S113369010B5FFF77DFF01230020084A0849136095
S11336A0084A094C1060086004212160074C21601D
S11336B007490B6007490860136010BD3880045047
S11336C00000845000000450000004510400045120
S11336D004000C500000045310B5044C2060217108
S11336E00020A2602373637310BDC04654020020FF
S11336F00422F0B587B005AC3B4E019002912070D6
S1133700617033790092834226D90022337B1500FD
S1133710737301230092A3700393334F3B7BAB423B
S11337201DD8009B002B02D0029B012B48D1012005
S1133730FFF7A2FF0C20019B00255843336818189B
S113374000F0D6F8019B012073710226FFF79AFF5F
S1133750A6703B7BAB421AD8009807B0F0BDBA689C
S1133760AB009B58002B0FD01A7903990A420BD057
S113377020001A6899689047002805D0029B7D7341
S1133780002B1BD0052300930135EDB2C5E7BA68C1
S1133790AB009B58002B0ED01A7932420BD020007C
S11337A01A6899689047002805D0029B7D73002B06
S11337B017D0062300930135EDB2CAE70523009321
S11337C00023A370013DEDB2FF2DC5D0064BAA0026
S11337D09B68D358002BF5D020001A68996890474D
S11337E0F0E706230093B7E754020020014B587911
S11337F07047C0465402002013B50400002021780D
S11338000190022920D0032922D0012925D122792F
S113381001AB144801F026F9002814D1A3795A1EEB
S11338209341114ADB01137063785A1E93410F4A86
S11338305B001370A2780E4B1A70E2780D4B1A706D
S113384062790D4B1A7016BD0100227901ABE0E7D5
S113385001A9044801F048F9DEE701A9014801F093
S1133860E5F8D9E7004006401840865300408650EA
S1133870004006500140065018401650084A4309BB
S11338809B009B18F822C0051205104018438023A2
S11338905B0518430068431E9841C0B27047C04698
S11338A028800440074A43099B009B18F822C0055E
S11338B012051040184380235B051843002303605E
S11338C07047C04628800440F821084A43099B00F9
S11338D09B180905C2050A4013438022520513436D
S11338E01F2210401E3A82401A607047288004400C
S11338F0072373B5009300230400104D1A0001211F
S1133900280001F091F92000FFF776FF637A280080
S113391000930023217A1A0001F086F9E379084A1A
S11339209B041360074BA17A1D68280001F0F8F886
S11339302800E17A01F003F9002076BD007004400C
S113394000700C592472000010B5054801F02EF8DF
S1133950044B1968C9B20131FDF70CF910BDC0461A
S11339600040064044801C5E10B5FFF7EDFF10BD1B
S113397010B5054801F01AF8044B1968C9B20131B1
S1133980FDF7F8F810BDC0460040064044801458C6
S113399010B5FFF7EDFF10BD0B4B1B68DBB2022B1C
S11339A00CD0032B0DD00020834206D1074A1068A7
S11339B080221202904200D018007047044B18680D
S11339C0FBE7FA208000F8E700700C598002002021
S11339D08402002010B5FFF7DFFF10BD054B10B5C2
S11339E0186801F0A4F80023984201D0024B1B6828
S11339F0180010BD2472000080020020044B012036
S1133A001B6810B5DBB2002B01D0FFF7E7FF10BD38
S1133A100480045210B50C0012282AD8FDF78CF843
S1133A200A0A0A0F290F12152929181B29292929DD
S1133A301E222600FFF788FF2060002010BDFFF73C
S1133A4097FFF9E7FFF7A8FFF6E7FFF7C7FFF3E7EC
S1133A500A4B2360F1E7FFF7D1FFEDE7084800F0D8
S1133A60A5FFE9E7064800F08BFFE5E7FA239B0092
S1133A70EFE7002302202360E0E7C046006CDC028D
S1133A800040064010B5024B185CFFF71DFF10BD47
S1133A900472000010B5024B185CFFF703FF10BD61
S1133AA00472000010B5024B185CFFF7E7FE10BD6E
S1133AB00472000010B5BB20FFF7E0FE10BD10B586
S1133AC07620FFF701FF10BD10B57620FFF7EAFE60
S1133AD010BD10B57620FFF7D1FE10BD10B56620DD
S1133AE0FFF7F2FE10BD10B56620FFF7DBFE10BD38
S1133AF010B56620FFF7C2FE10BD10B59420FFF785
S1133B00BDFE10BD10B5024B185CFFF7B7FE10BD2B
S1133B1006720000044A1368002B04D0013B1360B2
S1133B20002B00D162B670476402002072B6024ACC
S1133B3013680133136070476402002010B5064C0B
S1133B40064801F003FB042801D1002010BD013C0C
S1133B50002CF5D10320F9E7EA03000000E0074058
S1133B6010B50B4B0B490A78002A07D0084C0A48B9
S1133B7001F0ECFA012806D1002003E0013B002B00
S1133B80F1D1032010BD013C002CF0D1F9E7C0466F
S1133B90EA03000002D0075100E00740F7B5070030
S1133BA00E00150001200193002F15D0002913D019
S1133BB0FFF762FD094C102200212000FCF78EFD66
S1133BC027602671002D03D0019BA56023736373C6
S1133BD00120FFF757FD0020FEBDC046680200200B
S1133BE0F0B5B14C8DB002900391237B0120637337
S1133BF0FFF742FD2379029A934206D80120FFF78A
S1133C0041FD022738000DB0F0BD029A23689200EE
S1133C10D35809AC1D780193039B2A002372029B9D
S1133C202370019B636002239A430492012A01D00A
S1133C30052D0AD101219D4801F0DCF9002807D1A6
S1133C400120FFF71FFD0127DCE70321072DF2D830
S1133C500123002763723C000593934E337BA342F8
S1133C602AD80120FFF70EFD914800F0C3FE049B03
S1133C70012B4AD10138022835D9039B012B00D0EE
S1133C800DE106270120FFF7F7FC0023012609AD0B
S1133C906B72013CE4B2FF2C00D1AFE0824BA20076
S1133CA09B68D358002BF4D01A793242F1D0280003
S1133CB01A6899689047ECE7B268A3009B58002BF8
S1133CC00ED01A7905990A420AD01A68996809A887
S1133CD09047002804D0039B04277473012BC0D1A0
S1133CE00134E4B2B9E7FFF753FE724B9842C4D8EB
S1133CF0FFF72AFE704EB042BFD8FFF739FEB0423C
S1133D00BBD8FFF731FEB042B7D8039B012B00D0DC
S1133D10C1E00A2D00D9BCE02800FCF70DFF060A1B
S1133D200D1E879A7B822F737800002207AB1A70CE
S1133D302DE0032207ABFAE75C4801F007FA0128FB
S1133D4008D00021594801F065F9FFF709FF071E63
S1133D5000D057E7012207ABE9E7544801F0F6F930
S1133D60042808D00221514801F054F9FFF7E6FE77
S1133D70071E00D046E7042207ABD8E7072207ABAB
S1133D801A80019AD2789A70019A1279DA702B000B
S1133D90083B022B06D8019B06AA5B799372019B10
S1133DA09B79D372019B5B78002B0AD0012D08D933
S1133DB0019B02229978414B00294DD019690A438D
S1133DC01A613A4807A901F049F9002800D00327ED
S1133DD0002D45D1FFF7C4FE071E00D012E70027CF
S1133DE00120FFF749FC029B2F4D0024AB730223F3
S1133DF009AE737201932B7BA34236D80120FFF7DF
S1133E0041FCFFE6082207ABFF321A80BFE72C4AC9
S1133E1007ABFAE7022207AB1A700222FF329A803C
S1133E20B5E7022207AB1A70264AF8E7022207AB6D
S1133E301A70013A1D489A8001F088F90128A6D029
S1133E4000211A4801F0E6F8FFF78AFE071E9ED00B
S1133E50D8E6052207AB6AE7196991431961B0E70F
S1133E60012DBDD1FFF76AFEB6E7AA68A3009B58EF
S1133E70002B0BD01A7901990A4207D030001A6836
S1133E8099689047002801D005276C730134E4B287
S1133E90B1E70327B6E6002F00D13AE7F2E6002F98
S1133EA000D0EFE6EDE6C0466802002000E00740DF
S1133EB00040064040420F0080841E0000ED00E0F8
S1133EC0070300000102000010B5064801F03EF9A6
S1133ED003000020012B03D00B30042B00D10A383F
S1133EE010BDC04600E00740F7B5FF2403681D4A33
S1133EF01E0A26401C40B3009F581B4A05009B58CD
S1133F0030000193FFF7BEFD00222100380001F0CC
S1133F1025F9019BA400E41884232A795B05234333
S1133F2052001A6080236A795B0523431A60902348
S1133F30AA795B05234312011A600C4B1C43EB79ED
S1133F401B042360EB79002B0AD0094B9B57002BF1
S1133F5006D01F2213401E3A9A401300054A1360EC
S1133F60F7BDC04628720000307200000000181827
S1133F703872000000E100E0F8B5FF240500036892
S1133F80114A180A20401C4083009F580F4A9E582B
S1133F90FFF778FD38002100012201F0DFF86A689C
S1133FA02100380001F0E9F888232A7AA400A41932
S1133FB05B05234392001A6098235B051C436B7ACC
S1133FC09B012360F8BDC0462872000030720000D7
S1133FD070B50C00002807D1002C0FD170BD05006E
S1133FE00835FFF781FF280003680133F7D1F3E7B1
S1133FF0250020000C35FFF7BFFF2C002368013398
S1134000F6D1EBE7FF22030A044913409B005958F9
S11340100123104083404B607047C0462872000063
S1134020FF22030A044913409B00595801231040FE
S113403083408B607047C04628720000084B8200A2
S1134040D258942310B502325B0513431B78002B1E
S113405002D000F03FFA10BD00F092FAFBE7C04630
S113406008720000020080230C325B0513431A78A7
S1134070002AFCD00171704770B50D00084B800018
S1134080C458200029001830FFF7A6FA0328F8D0F6
S1134090002801D004232374207CC0B270BDC04624
S11340A07802002010B5104B8000C458E37C002B2C
S11340B005D0237C052B02D0237C042B0BD10B4B86
S11340C018589823821C5B05134300221A7001F0D0
S11340D0C3F801236374A37C002B03D020001830A1
S11340E0FFF737FA10BDC0467802002008720000BE
S11340F0F0B51700002289B005930EAB1B780500BC
S11341000393830032481E5832481C5807AB1A8068
S1134110A37C880A04930223FF3363828B0A0193EE
S1134120CBB21E2801D11A000B0A5B00D8B2019B46
S113413000211E2B05D08F4203D1012303995B1A62
S113414059B20143CBB202930299019807AB19709B
S113415001211E2801D15A704918A3603000E16082
S11341600299FFF77FFF28000F99FFF785FF237C53
S1134170002B0CD1002F0AD0059BA760E360300010
S11341803978FFF76FFF28000F99FFF775FF237C3D
S1134190039A1A4314D1019B1E2B01D0002F0FD078
S11341A0002301273000A360E76001F043F802997F
S11341B030003943FFF756FF28000F99FFF75CFFE3
S11341C00023207CE374049BC0B2A37409B0F0BD47
S11341D00872000078020020F7B583000193184BA1
S11341E08200D75805000C000126002F26D1154B5C
S11341F03900D358200024220193FCF76FFA2000E1
S113420039001830FFF79EF92800FFF767FC019882
S113421000F0BBFF0A4BAA00D4501F220A4B5B5D7F
S1134220134032009A40094B1A609C22019B5205AC
S113423002331343802266743E001A703000FEBDC0
S113424078020020087200000C72000000E100E017
S1134250F7B50E4E8500AB59002701930C4B0400B3
S1134260EA589C2302325B0513431F70FFF73BFCA3
S1134270084B01981A5D1F231A401E3B9340064ABF
S11342801830D367FFF775F9AF51F7BD78020020F6
S1134290087200000C72000004E100E00A4B800088
S11342A070B5C5584B686A690C0093420BD0074B34
S11342B0C658FFF75DFB002301006268300000F080
S11342C073FF63686B6170BD7802002008720000A0
S11342D0F0B587B004920593334A0FAB1E78830080
S11342E09C580391627C0700002A03D103202074A8
S11342F007B0F0BD002E01D11E220E922B4A3800C9
S1134300D55800230399E360A36023742360637486
S1134310A674FFF7C3FF90231021AA1C5B05134367
S113432019708423E91C5B050B430221197098233F
S11343305B05134302934023029A2800137000F094
S113434079FF039B380019880E9B049A019301237B
S11343500093059BFFF7CCFE0D9B002B17D0237C0D
S1134360002B11D10C9B2800A3600D9BE3600C9BD8
S11343701978FFF777FE002E03D038000E99FFF767
S11343807BFE207CC0B2B3E7237C042BF9D100234D
S11343900126029A1370EB785B09334202D028009D
S11343A000F05AFF6674ECE77802002008720000FF
S11343B0F0B589B0079311AB1B780692364A029385
S11343C083009C580591627C0600002A03D10320D7
S11343D0207409B0F0BD029A002A01D11E32109255
S11343E000272E4A0599D5580E9B300023600F9B59
S11343F0A7606360029BE760A37427746774FFF788
S11344004DFF9023AA1C5B051A43102313708423C9
S113441004925B05EA1C134302221A709823AA181B
S11344205B051A43402328001370039200F002FF37
S1134430059B069A1988109B300001930097079BEF
S1134440FFF756FE237CDAB2BB4215D1049BA91CAC
S11344501A708C235B050B430F99012900D10822A4
S11344601A702B79029B002B03D030001099FFF7B0
S113447003FE207CC0B2ACE7237C042BF9D10126D7
S1134480039B1F70EB785B09334202D0280000F0D5
S1134490E3FE6674EDE7C04678020020087200006F
S11344A01FB501240394089C0294079C0194069C64
S11344B00094FFF70DFF04B010BD1FB50124039451
S11344C0089C0294079C0194069C0094FFF770FFDB
S11344D004B010BD244B70B58400E5588423EA1C55
S11344E05B05134302221A709023A9185B050B4342
S11344F01B78EA78DBB292061DD5942252050A4352
S11345001278002A17D0194AA458012B14D1EA783A
S11345101A4204D004332374FFF7C4FD0BE0E368AC
S1134520013BE360002BF7D0A36828005A1CA2606B
S11345305978FFF797FD70BD6268013A6260002AFE
S113454006D08C235B05012A0AD000220B4309E024
S1134550FFF7A8FD23685A1C22602A791A70EAE73B
S113456008220B431A70F5E7087200007802002055
S1134570C31C8420400518430223037070470000C5
S11345800122F0B5904B8100CD5889B0EB1C01930A
S1134590EB7890261B091A4005920122EB787605E8
S11345A09B091A4002923200AB1D1A4394461278BA
S11345B00090D2B20792942252051A431278AF1C8B
S11345C0D0B203909820400503431878C0B20690F7
S11345D07E480C583100394301910978C9B20491DD
S11345E0002A35D0079A002A0ED0102362462800EC
S11345F01370FFF7BDFF236B002B52D06A460121D5
S11346001078626B98474CE0069A002A20D040222A
S113461028001A70FFF7ACFF23002C331B78002B03
S113462003D19822520517433B70236B002B04D00F
S11346306A4680211078626B9847E37D002B04D092
S1134640200080211830FEF796FF0A23237028E00B
S11346502800FFF78DFF059B002B24D0EB1C1E4385
S113466010233370029B002B10D0EB785B07DA0F1A
S1134670002B48DB019B1A70236B002B04D06A4685
S113468004211078626B98472B790AE00823237081
S11346902C342378002B04D198235B051F43029B01
S11346A03B7009B0F0BD029B002BDED1049B012BB3
S11346B054D1EB78049A134230D0019B029A1A70B9
S11346C02B7923002C331B78002B07D1039B002B61
S11346D004D198235B051F43039B3B70236B002B82
S11346E004D06A4608211078626B9847A37D002B9A
S11346F004D0200008211830FEF73DFF002363603A
S1134700E3602375CDE71023019A1370236B002B0C
S113471004D06A4602211078626B98476368002BC4
S113472050D028008022E3680C30520519780243E7
S113473010780028FCD029710133E3606368013BE1
S113474063606368002BACD1E3602375236B002B9B
S1134750A7D06A4610211078626B53E72B79A268C0
S1134760DBB2002A2CD02269137023690133236140
S1134770A368013BA360A368002B00D091E7039BCF
S1134780002B11D123002C331B78002B04D1982348
S11347905B051F43039B3B70E37D002B04D020008B
S11347A020211830FEF7E7FE002363752361236B95
S11347B0002B00D175E76A4620211078626B21E74F
S11347C0072343E7062341E708720000780200202C
S11347D0042A02D0072A05D07047054B013018433C
S11347E00170F9E7034B013089011843C9B2F7E7B7
S11347F00000081000000813042902D0072907D07C
S11348007047902303305B05184310230370F7E7C8
S11348109C2303305B0518438023F7E7DC2270B543
S11348200024094B8000C558084B5205C35808336F
S11348301A431460AA7CA24203D028001430FEF765
S113484088FE2C7470BDC0467C02002010720000EB
S11348500C4B800070B5C5580B4B0024C058D423B2
S113486002005B05083213431C602200074900F074
S113487014FDEB7CA34203D028002030FEF769FE30
S11348806C7470BD7C020020107200001B000200DA
S1134890F8B52B4A83009C580600227C002A02D1DA
S11348A0627C002A3ED0274AD558DC232F005B05C2
S11348B01A0008373A431268002A15D02A1D1343F8
S11348C01B68002B10D0A368002B0DD023681A7826
S11348D00133EA602360A368013BA360A368002B53
S11348E002D13000FFF79AFFD4235B051F433A68D7
S11348F0002A0DD02A1D13431B68002B08D0EB6837
S113490062681370E36A002B0DD0210030009847D1
S113491028000D4900F002FD002803D028000A49B0
S113492000F000FDF8BD636801336360E368013B98
S1134930E360E368002BEBD13000FFF789FFE7E782
S11349407C02002010720000130001008422520532
S1134950024312780300D0B2002A0CD08020013325
S1134960400503431878013843425841024B404202
S11349701840024BC0187047808D5B0080841E0075
S1134980020070B5074B083213431C78064B1032F3
S113499013431D78FFF7DAFFEDB2E4B26419E04087
S11349A070BDC046000090100000101010B50D4BF3
S11349B0821D13431A780400D3B2002A0FD0012BAE
S11349C007D1FFF7C3FF084B08341C432378D840B2
S11349D010BD0020022BFBD1044B1868F8E70448F3
S11349E0F6E7C04600000811000090108002002085
S11349F0006CDC020C4A811D0A4312780300D0B219
S1134A00012A04D002280BD000280BD17047802241
S1134A100133520513431B78002BF7D10220F5E72D
S1134A200320F3E70520F1E70000081102009C23AE
S1134A3018325B05134380221A700022064B03438D
S1134A401A70064B063018430378DAB2002BFBD1F8
S1134A50034B10000B60704700000813000008119E
S1134A60006CDC02F8B504000D0016001F00FFF70F
S1134A70C1FF012823D1002D25D08023621C5B05B2
S1134A8013431D70842302225B0523431A70220002
S1134A90104B083213437200D2B21A7040220E4BEC
S1134AA00E48234306341A7004432378012BFCD1A7
S1134AB0002D0DD10A4B334100203B60F8BD022884
S1134AC0DBD1012DD9D139002000FFF7AFFFD4E7A6
S1134AD0044BF0E7000090100000081300000811D8
S1134AE080841E0000127A0010B50A4C030022686C
S1134AF00120002A0CD0084A7F301A43107007485E
S1134B00063303431A78022AFCD1002023680B6081
S1134B1010BDC046800200200000081300000811E8
S1134B209C23C9015B050343C9B2197070479C23D8
S1134B305B0503431878431E9841C0B27047942321
S1134B4049015B050343C9B219707047104B8200D9
S1134B5070B5D558802204000E4B92051A602800C7
S1134B6000F0A2FC280000F08BFC0B4B1F261A5D02
S1134B700123180009493240095DC02531409040A5
S1134B808B40074A6D00505153511060136070BD43
S1134B90147200003C80845E1872000019720000D8
S1134BA000E100E0F7B50027114B8000C55808006C
S1134BB00E00019700F00CFC0400B84216D001A9C5
S1134BC0300000F02FFC3800FEF704FF01008020C5
S1134BD00002814206D0FBF7CDFF01000198FBF7EC
S1134BE0C9FF01902800019900F07AFC2000FEBD65
S1134BF014720000044B8000C25888231C325B05E9
S1134C00134389001960704714720000054B80003B
S1134C10C258882314325B0513431868431E984115
S1134C20C0B27047147200006B46E0221B78D202B7
S1134C301B041340024A09070B43801803607047A2
S1134C4044100000084B8200D258902310B5033260
S1134C505B0513431B78002B02D000F013F910BD41
S1134C6000F078F9FBE7C0461C7200009C210C4B55
S1134C700C4A8000C358825800200332490511436E
S1134C8010B518710870942149050A4310701A7FF1
S1134C90824203D020331800FEF75BFC10BDC046EF
S1134CA0880200201C720000F7B50C0005001B4BA5
S1134CB03022002187002000FE58FBF70FFD28005A
S1134CC0FEF7FDFEFEF754FE2060300000F014FCF9
S1134CD0200000212030FEF735FCF31C01939023C3
S1134CE0F21C5B051343102230001A70032100F0FC
S1134CF041FC3000002100F062FC094BFC50094BE0
S1134D005A5D1F231A401E3B9340074A13609823A1
S1134D10019A5B05134340221A70F7BD1C72000010
S1134D20880200202072000000E100E0F8B50D4E7A
S1134D3085000D4BAF590400E85800F0DDFB380046
S1134D402030FEF716FC094B20001A5D1F231A4081
S1134D501E3B9340064AD367FEF7B6FE0023AB51D1
S1134D60F8BDC046880200201C72000020720000BA
S1134D7004E100E00A4B800070B5C658094B0C00F2
S1134D80C358150030001A68096800F0BCFB28609D
S1134D90A37930006279217900F0FEFB70BDC04632
S1134DA01C72000088020020F7B51E4A83009C583C
S1134DB0050022790420002A16D11B4A9E58002996
S1134DC003D0280001AAFFF7D5FF98230021402033
S1134DD0F21C5B0513431970187027698F4204D1C4
S1134DE02800FFF743FF0020FEBD01232371942315
S1134DF05B05A16133431B780720002BF4D0A36823
S1134E00191E02D019780133A360B1712369013BE3
S1134E102361A3690133A3619C235B051A438023A7
S1134E201370E0E7880200201C720000F8B5134FED
S1134E30134C85002C59ED590127069E2777A26053
S1134E402661E3606661FFF7AFFF002814D12000FC
S1134E5007992030FEF7C0FB0328F8D000280BD0B8
S1134E609C23002203355B052B4322711A70942383
S1134E7003205B051D432A70F8BDC0461C72000068
S1134E808802002010B51E4B8200D35819790029DE
S1134E9034D01C4951585A69002A11D09C22520519
S1134EA00A431278002A0BD08A79DC68D2B2002C2B
S1134EB003D02270DA680132DA605A69013A5A6121
S1134EC01A69002A12D0942252050A431278002A41
S1134ED00CD09A68141E02D0147801329A608C7136
S1134EE01A69013A1A619A6901329A611A69002AA7
S1134EF004D15B69002B01D1FFF7B8FE10BDC04699
S1134F00880200201C720000104A80008158002290
S1134F100F4B10B5C3580331581CC2779C20400571
S1134F200843DA621A701A835A629A621A63027028
S1134F309420400501430A701A0038321278002A7E
S1134F4003D00121181DFEF716FB10BD1C720000D2
S1134F508802002070B5254B8200D358591CC97FA4
S1134F60002942D022495258D96A002917DB9421DA
S1134F70490511430978002911D0D969CCB2596A7D
S1134F80002905D0DD6A002D02DD0C78013159625B
S1134F909471D96A0139D962596B01315963D96A5B
S1134FA0002905DA9421D41C4905214300240C70FE
S1134FB0196B002911DD9C21490511430978002949
S1134FC00BD09279996AD2B2002903D00A709A6AF6
S1134FD001329A621A6B013A1A63DA6A002A04DC13
S1134FE01B6B002B01DCFFF78FFF70BD88020020D4
S1134FF01C720000012903D0032909D00020704746
S113500094235B0518430078431E9841C0B2F6E729
S11350108423F6E7431C034849011843C9B20170CD
S11350207047C04600008812831C94204901400543
S11350301843C9B201707047831C0348890118439F
S1135040C9B201707047C04600000813831C8C204D
S1135050C90040051843C9B201707047F7B5040090
S1135060364EE31C1E43337808780D00DBB2072864
S113507060D8FBF761FD04192B0E192B2B45304B1F
S113508001341C43002323703378012BFCD100200E
S1135090FEBD012BFCD12A4B01341C434023237059
S11350A03378042BFCD1F2E70021012801D004203D
S11350B00231337898423FD12000FFF7ABFF04213F
S11350C0204A13698B43136130BFE0E70227B842DB
S11350D007D100270B79BB4203D020004979FFF7A1
S11350E0ABFF194B01341C4327703378154ADBB2EC
S11350F00193019B01330193042311690B43E2E7FC
S11351000421114B621C1A4311706A78A11C0B43D1
S11351101A70002A06D1AB78002B03D02000E9785E
S1135120FFF782FFAB79002BDFD02000E979FFF78E
S11351308DFFDAE70120ABE70320A9E70000301078
S11351400000881200ED00E000001010C31C0248AB
S113515018430078C0B270470000301001231430A7
S11351608B40012A04D1802212051043036070474A
S11351708022D204DB431043F8E701238B40002A4A
S113518001D0436070478360FCE70023C2220370B0
S113519043708370C37043718371C371037242722D
S11351A08372C37270470000F0B5002487B0029385
S11351B0FA230126270025009B0053430390049102
S11351C0009301947642AB000593194BAA009B18F7
S11351D059880498A140FBF7CDFC009B009AC31AA0
S11351E0824200D9131AB3421FD2114AA900525C59
S11351F027000192002B02D00135322D13D1013446
S1135200032C01D0002B0DD1029A002A00D0136088
S11352103F220199BB0111400B43039ADBB2537047
S113522007B0F0BD00251E00CDE73300E4E7C0461B
S11352303A720000942302305B0503431B78002B71
S113524005D088235B05184304230370704780232B
S11352501B0518433023F8E7942210B55205841C2B
S1135260224311780300CAB2022001290DD1802102
S1135270C90421438024CD300870E4000333197835
S1135280490908001040114200D110BD013C002C16
S113529001D0C046F3E70920F7E7012310B58B409E
S11352A00400080C04280AD8FBF746FC030E141764
S11352B01A008020002A03D000050443236010BD97
S11352C0C004DB430443F9E7201D8024002A0AD0EC
S11352D02405F2E720000830F7E720000C30F4E75B
S11352E020001030F1E7E404EBE70200002300B5EE
S11352F0080C042808D80133FBF71EFC03080A0C29
S11353000E001068C8400340180000BD5068F9E75B
S11353109068F7E7D068F5E71069F3E710B5FFF791
S1135320E4FF10BD294A0300881800B510284BD8A3
S1135330FBF702FC433C27201912094A4A4A4A2E29
S11353404A4A4A4A3500D0208022043340050343A8
S1135350520300201A6000BDCC2080220433400593
S113536003431203F5E7C8208022043340050343B6
S1135370D202EEE7C42080220433400503439202A4
S1135380E7E7C02080220433400503435202E0E7EC
S1135390FC2080220433400503431206D9E7F82099
S11353A08022043340050343D205D2E7BC20802287
S11353B00433400503431202CBE7B82080220433B0
S11353C040050343D201C4E70320C4E7F2FFFEFF14
S11353D00188114A03008A18002030B5812A17D8A1
S11353E05A88541E0B2C13D89C88651E1E2D0FD86A
S11353F0DD88172D0CD81D893B2D09D89B7A3B2BB2
S113540006D88B0705D0054B9B5CA3424041C0B234
S113541030BD034BF8E7C0464EF8FFFF2A73000087
S11354200273000070B5134D838802885B196E25E2
S1135430FF35554344885B1995085B190E4D66008A
S1135440755B5B19920710D00B600A680B4BC4881C
S11354505343827A00899B18E122120162439B180C
S11354603C2242439B180B6070BD022CECD8013BDC
S1135470EAE7C0464A05F5FF1073000080510100B9
S11354808023084A1B0212689A4209D1A0231030D3
S11354905B0518430368002B02D10133FF3303601B
S11354A07047C046800200200100802210B500230E
S11354B001245205103111430C600B6090214360AC
S11354C0490504601C3001430B60882149050143F0
S11354D00B6084214905014310430B60036010BD38
S11354E00200902314325B05134300221A604260C9
S11354F0103201601A6070470423C3700023837064
S1135500437003717047F0B5130B89B00126039300
S113551008230124764202939B1907900491059273
S1135520019302270025631E069321000598794301
S1135530FBF720FB049B834207D31B1AB34204D21C
S11355401E00069B03900295019301357F00092DEF
S113555001D0002EE9D1082C02D00134002EE0D174
S1135560019B029A1B0103981343079ADBB2537001
S113557009B0F0BD842310B50224C21C5B0513439B
S11355804A0022401A70902300195B051843102327
S1135590C9001940017010BD10B58C240330640596
S11355A0C9000443C9B2217088219200490501430E
S11355B0D2B20A70802252051043037010BD8023BA
S11355C0012202305B0503430A401A708C235B05F9
S11355D018430823890019400170704790000000A7
S11355E00000AB000000004B00000000005A000067
S11355F000000000000000000000000000000000A7
S11356000000000004FEFF1F0967576172705370A9
S113561069436F6D6D6F6E53696E6B427566666537
S1135620725B25645D203D205B3078253032585D07
S11356300A00776172705365744C6F77506F7765A9
S1135640724D6F6465286B57617270506F77657225
S11356504D6F6465564C50532C2030202F2A2073F4
S11356606C656570207365636F6E6473203A20699E
S11356707272656C6576616E742068657265202A45
S11356802F292829206661696C65642E2E2E0A0054
S11356900D0A0A0A0A5B202A09090909576172706E
S11356A020284857207265766973696F6E204329F4
S11356B0202F20476C617578202848572072657622
S11356C06973696F6E2042290909092A205D0A005D
S11356D00D5B202009090909202020202020436196
S11356E06D627269646765202F2050687973636FF7
S11356F06D706C61622020200909090920205D0A6F
S11357000A000D09537570706C793D25646D562C33
S11357100944656661756C74205461726765742010
S1135720526561642052656769737465723D3078AF
S1135730253032780A000D094932433D25646B62F5
S11357402F732C095350493D25646B622F732C0928
S1135750554152543D2564622F732C09493243202C
S113576050756C6C2D55703D25640A0A000D095363
S1135770494D2D3E53434743363D307825303278EA
S113578009095254432D3E53523D30782530327826
S113579009095254432D3E5453523D30782530323A
S11357A0780A000D094D43475F43313D3078253079
S11357B032780909094D43475F43323D307825303B
S11357C0327809094D43475F533D307825303278AC
S11357D00A000D094D43475F53433D30782530326D
S11357E0780909094D43475F4D433D3078253032F0
S11357F07809094F53435F43523D3078253032785E
S11358000A000D09534D435F504D50524F543D30E3
S11358107825303278090909534D435F504D43547C
S1135820524C3D30782530327809095343422D3E9D
S11358305343523D3078253032780A000D09504DDB
S1135840435F52454753433D307825303278090948
S11358500953494D5F53434743343D307825303233
S113586078095254432D3E5450523D3078253032FD
S1135870780A0A000D0925647320696E2052544386
S11358802048616E646C657220746F2D6461746568
S11358902C09256420506D6772204572726F7273F3
S11358A00A001B5B306D1B5B343B34336D1B5B3177
S11358B03B33376D0D53616E69747920636865639A
S11358C06B206661696C6564211B5B306D0A000D99
S11358D009307825303278202D2D3E205B30782514
S11358E030327820307825303278203078253032C4
S11358F0785D0A000D09307825303278202D2D3E50
S1135900203078253032780A000D0930782530327D
S113591078202D2D3E202D2D2D2D0A000D0A092530
S1135920642F2564207375636365737320726174D7
S1135930652E0A000D0925642F25642073756363A1
S11359406573736573206D61746368656420726543
S1135950662E2076616C7565206F66203078253060
S113596032782E0A000D0925642062616420636F79
S11359706D6D616E64732E0A0A000A0A0A0D426F85
S11359806F74696E6720576172702C20696E2033C2
S11359902E2E2E2000322E2E2E2000312E2E2E0AB8
S11359A00A0A0D0041626F757420746F2073776961
S11359B07463682043505520746F20564C50522015
S11359C06D6F64652E2E2E2000776172705365749E
S11359D04C6F77506F7765724D6F6465286B5761B4
S11359E07270506F7765724D6F6465564C505228D3
S11359F029206661696C65642E2E2E0A00646F6E20
S1135A00652E0A0D0041626F757420746F20475033
S1135A10494F5F4452565F496E697428292E2E2ED1
S1135A20200041626F757420746F206C6F77506F23
S1135A3077657250696E53746174657328292E2ECC
S1135A402E2000736574525443436F756E74646FF3
S1135A50776E5256383830334337282920666169C7
S1135A606C65642E2E2E0A00736574525443436F82
S1135A70756E74646F776E525638383033433728F6
S1135A8029207375636365656465642E0A00726515
S1135A90616452544352656769737465725256382F
S1135AA038303343372829206661696C65642E2EAB
S1135AB02E0A0072656164525443526567697374B7
S1135AC0657252563838303343372829207375634A
S1135AD06365656465642E0A00777269746552545F
S1135AE0435265676973746572525638383033436C
S1135AF0372829206661696C65642E2E2E0A00778A
S1135B00726974655254435265676973746572525D
S1135B1056383830334337282920737563636565F5
S1135B206465642E0A00426F6F7420646F6E652E84
S1135B300A000D53656C6563743A0A000D2D202725
S1135B4061273A207365742064656661756C7420FE
S1135B5073656E736F722E0A000D2D202762273A2B
S1135B602073657420493243206261756420726138
S1135B7074652E0A000D2D202763273A207365745F
S1135B8020535049206261756420726174652E0A45
S1135B90000D2D202764273A207365742055415247
S1135BA054206261756420726174652E0A000D2DA3
S1135BB0202765273A207365742064656661756CD7
S1135BC074207265676973746572206164647265B8
S1135BD073732E0A000D2D202766273A20777269E9
S1135BE07465206279746520746F2073656E736FB9
S1135BF0722E0A000D2D202767273A207365742022
S1135C0064656661756C742073656E736F7220735E
S1135C107570706C7920766F6C746167652E0A00FC
S1135C200D2D202768273A20706F776572646F778F
S1135C306E20636F6D6D616E6420746F20616C6C97
S1135C402073656E736F72732E0A000D2D20276901
S1135C50273A207365742070756C6C2D75702065FF
S1135C606E61626C652076616C75652E0A000D2D7F
S1135C7020276A273A207265706561742072656115
S1135C80642072656720307825303278206F6E206A
S1135C9073656E736F72202325642E0A000D2D2008
S1135CA0276B273A20736C65657020756E74696C78
S1135CB02072657365742E0A000D2D20276C273A17
S1135CC02073656E6420726570656174656420621A
S1135CD0797465206F6E204932432E0A000D2D2001
S1135CE0276D273A2073656E642072657065617450
S1135CF065642062797465206F6E205350492E0AC2
S1135D00000D2D20276E273A20656E61626C652098
S1135D1073656E736F7220737570706C7920766F13
S1135D206C746167652E0A000D2D20276F273A20B9
S1135D3064697361626C652073656E736F7220733E
S1135D407570706C7920766F6C746167652E0A00CB
S1135D500D2D202770273A207377697463682074A7
S1135D606F20564C5052206D6F64652E0A000D2D25
S1135D70202772273A2073776974636820746F2030
S1135D8052554E206D6F64652E0A000D2D20277329
S1135D90273A20706F77657220757020616C6C20D3
S1135DA073656E736F72732E0A000D2D202774278E
S1135DB03A2064756D702070726F636573736F72CF
S1135DC02073746174652E0A000D2D202775273AFF
S1135DD0207365742049324320616464726573736F
S1135DE02E0A000D2D202746273A204F70656E207D
S1135DF0466C617368206D656E752E0A000D2D204A
S1135E002776273A20456E74657220564C4C5330E1
S1135E10206C6F772D706F776572206D6F646520CD
S1135E20666F722033732C207468656E20726573FC
S1135E3065740A000D2D202778273A206469736160
S1135E40626C652053574420616E64207370696EE0
S1135E5020666F7220313020736563732E0A000D43
S1135E602D20277A273A2070657270657475616CED
S1135E706C792064756D7020616C6C2073656E7331
S1135E806F7220646174612E0A000D456E74657230
S1135E902073656C656374696F6E3E20000D095351
S1135EA0656C6563743A0A000D092D20273127209B
S1135EB04144584C33363209090928307830302DA2
S1135EC02D30783244293A20312E3656202D2D207B
S1135ED0332E35562028636F6D70696C6564206FAE
S1135EE0757429200A000D092D2027322720424DE0
S1135EF058303535616363656C2009092830783082
S1135F00302D2D30783346293A20322E3456202D28
S1135F102D20332E36562028636F6D70696C6564AE
S1135F20206F757429200A000D092D20273327209E
S1135F30424D583035356779726F09090928307830
S1135F4030302D2D30783346293A20322E345620E5
S1135F502D2D20332E36562028636F6D70696C65A5
S1135F6064206F757429200A000D092D2027342719
S1135F7020424D583035356D61670909092830785C
S1135F8034302D2D30783532293A20322E345620B3
S1135F902D2D20332E36562028636F6D70696C6565
S1135FA064206F757429200A000D092D20273527D8
S1135FB0204D4D41383435315109090928307830A4
S1135FC0302D2D30783331293A20312E3935562071
S1135FD02D2D20332E36562028636F6D70696C6525
S1135FE064206F757429200A000D092D2027362797
S1135FF0204C505332354809090928307830382D5F
S11360002D30783234293A20312E3756202D2D2048
S1136010332E36562028636F6D70696C6564206F6B
