S02B00002F55736572732F61646D696E2F4769744875625F5265706F2F576172702D6669726D776172652F6210
S113000000060020E90400001105000011050000AD
S113001000000000000000000000000000000000DC
S113002000000000000000000000000011050000B6
S11300300000000000000000110500001105000090
S11300401105000011050000110500001105000054
S11300501105000011050000110500001105000044
S113006025250000110500002F25000011050000C2
S11300701105000011050000110500001105000024
S11300801105000011050000110500001105000014
S1130090810C0000990C00001105000011050000FE
S11300A011050000110500001105000011050000F4
S11300B011050000110500001105000011050000E4
S1130400FFFFFFFFFFFFFFFFFFFFFFFFFE3DFFFFBB
S113041010B5064C2378002B07D1054B002B02D0D6
S1130420044800E000BF0123237010BDA8FFFF1F94
S113043000000000E46D000008B5084B002B03D059
S11304400748084900E000BF07480368002B03D0B1
S1130450064B002B00D0984708BDC04600000000A2
S1130460E46D0000ACFFFF1FA4FFFF1F00000000AD
S1130470164B002B00D1144B9D46402292029A1A2F
S1130480924600218B460F461348144A121A04F070
S113049006FD0F4B002B00D098470E4B002B00D0CD
S11304A098470020002104000D000D48002802D0C8
S11304B00C4800E000BF04F0C3FC2000290000F059
S11304C0F3FE04F0A7FCC04600000800000600206C
S11304D00000000000000000A8FFFF1F40020020F1
S11304E0000000000000000072B606480649074AF2
S11304F002600A6002F020F802F060F862B6FFF7CA
S1130500B7FF000080E100E080E200E0FFFFFFFFB2
S1130510004800471105000002B47146490849002B
S1130520095C49008E4402BC7047C046002934D09F
S11305300123002210B488422CD301242407A142B1
S113054004D2814202D209011B01F8E7E400A1426E
S113055004D2814202D249005B00F8E7884201D309
S1130560401A1A434C08A04202D3001B5C082243E1
S11305708C08A04202D3001B9C082243CC08A04252
S113058002D3001BDC082243002803D01B0901D03E
S11305900909E3E7101C10BC7047002801D00020B3
S11305A0C04307B4024802A14018029003BDC046EC
S11305B0D90000000029F0D003B5FFF7B9FF0EBC45
S11305C04243891A1847C046002941D010B4041C7C
S11305D04C40A44601230022002900D549420028AA
S11305E000D5404288422CD301242407A14204D2DE
S11305F0814202D209011B01F8E7E400A14204D2BE
S1130600814202D249005B00F8E7884201D3401AD4
S11306101A434C08A04202D3001B5C0822438C08F6
S1130620A04202D3001B9C082243CC08A04202D360
S1130630001BDC082243002803D01B0901D0090950
S1130640E3E7101C6446002C00D5404210BC704700
S1130650002806D003DB0020C043400801E08020CE
S1130660000607B4024802A14018029003BDC04628
S1130670190000000029EBD003B5FFF7A7FF0EBC5B
S11306804243891A1847C0467047C046F0B55F46D2
S113069056464D464446F0B446024500C00F85B068
S11306A00F1C760A2D0E804641D0FF2D26D08024C3
S11306B0240400212643F6007F3D89468B46F90F2A
S11306C07C027800640A000E00918A463CD0FF2820
S11306D034D080231B041C430023E4007F3801939F
S11306E0009F4346019A7B4049469C4611430F298B
S11306F000D971E0764F89007F58BF46002E3ED165
S11307000822022391469B46D9E75A46341CC24626
S113071001920199022937D0032900D1CFE00129A0
S113072000D0ABE053460B400022002632E0002EFE
S113073019D10421012289469346C0E7221C531E85
S11307409A4102320192CBE701270197002CC7D0CE
S1130750201C00F067FA431F9C4076235B42002173
S1130760181A0191BCE7301C00F05CFA7625431F8F
S11307709E406D4200232D1A99469B469FE70C2309
S1130780032199468B469AE7D446012367463B40AA
S1130790FF2200267602D205700ADB0710431843B5
S11307A005B03CBC90469946A246AB46F0BD8026B7
S11307B00023F603FF22EDE700220026EAE780206B
S11307C0C00306423BD0044239D1061C26437602BC
S11307D0760A009BFF22DDE7281A03907601640164
S11307E0A64239D3361B1A2201230120311C5B0097
S11307F07600002901DBB44201D8361B0343013AD9
S1130800002AF3DC741EA641341C1C43039A7F3275
S1130810002A27DD630704D00F232340042B00D0D4
S11308200434270103D52B4B039A1C408032FE2A43
S11308300BDD012361460B40FF220026AAE7064395
S11308407602760A4346FF22A4E7A4010123674601
S1130850660AD2B23B409DE7039F1B22013F0397E8
S11308600023C2E77E23039F5B42DB1B1B2B07DDB8
S1130870012361460B40002200268BE7D446C5E7DE
S1130880221CDA40039B9E339C40231C5C1EA34124
S113089013435A0704D00F221A40042A00D0043309
S11308A05F0105D5012361460B400122002671E753
S11308B09E01624601231340760A00226AE78026DD
S11308C0F60326437602760A5346FF2262E7C046C1
S11308D0484F0000FFFFFFF7F0B55F4656464D4610
S11308E04446F0B44402460083B00F1C640A360E3A
S11308F0C50F002E41D0FF2E22D080231B040020E0
S11309001C43E4007F3E82468046391C4B007F0234
S1130910C90F7F0A1B0E8B463BD0FF2B34D080229D
S113092012041743FF007F3B00215A466A4001929C
S113093052460A430F2A63D87A489200825897464F
S1130940002C3FD10822022392469846DDE7019508
S1130950404602282AD1019A01251540FF2300248C
S11309606402DB05600AED071843284303B03CBC6E
S113097090469946A246AB46F0BD002C27D10420F0
S1130980012282469046C0E7391C4A1E9141023139
S1130990CBE70121002FC8D0381C00F043F9431FD6
S11309A09F4076235B421B1A0021BEE7032800D137
S11309B0AEE001284FD1019842461040C5B2002351
S11309C00024CDE70C2303209A4680469DE7201C93
S11309D000F028F97626431F9C4076420023361AFD
S11309E09A46984691E780240025E403FF23B7E75D
S11309F05B463C1C01938846AAE73C1C8846A7E753
S1130A00250C24043A0C240C3F04F6183F0C211C3A
S1130A10231C794353436F435543FB180A0C9B181B
S1130A20B1469F4202D980225202AD1809041A0429
S1130A30090C521894011B0C611E8C41920EED1886
S1130A401443AD012C43230105D501226308012081
S1130A50144081441C434B467F33002B2DDD60073B
S1130A6004D00F222240042A00D00434220103D5EA
S1130A702D4B1C404B468033FE2B17DD019B01257B
S1130A801D400024FF236BE78020C003044208D0EC
S1130A90074206D1041C3C436402640A5D46FF23FA
S1130AA05EE704436402640AFF2359E70198A40142
S1130AB00125640ADBB2054052E77E235B424A46C5
S1130AC09B1A1B2B05DD019B01251D4000240023DF
S1130AD046E7221CDA404B469E339C40231C5C1E96
S1130AE0A3411343580704D00F221A40042A00D00C
S1130AF004335A0105D5019B01251D40002401231F
S1130B002EE701989C010125640A0540002327E78C
S1130B108027FF03019B3C43640201251D40640AB6
S1130B20FF231DE7884F0000FFFFFFF74302590A28
S1130B304300C20F1B0E00207E2B0DDD9D2B0CDC11
S1130B40802000040143952B0ADC9620C31AD94067
S1130B504842002A00D1081C7047034BD018FBE719
S1130B60963B9940F4E7C046FFFFFF7F70B5041E33
S1130B703CD0C60F00D04442201C00F053F89E2302
S1130B80251C1B1A962B0CDC083884406402640A6A
S1130B90DBB2321C6402DB05600AD207184310433F
S1130BA070BD992B0ADD0522121A211CD1400A1CA2
S1130BB0011C1B318D40691E8D411543052801DD43
S1130BC0421F9540164C2C406A0704D00F22154052
S1130BD0042D00D0043461010CD59F23181AFF287A
S1130BE01AD0A401640AC3B2321CD3E70022002342
S1130BF00024CFE7E408FF2B04D06402640ADBB2CC
S1130C00321CC7E7002C04D08020C00304436402D4
S1130C10640A321CFF23BDE7321CFF230024B9E71A
S1130C20FFFFFFFB1C2101231B04984201D3000C8E
S1130C3010391B0A984201D3000A08391B0998424B
S1130C4001D30009043902A2105C40187047C04661
S1130C500403020201010101000000000000000081
S1130C60837802209842804140427047437A0020B2
S1130C70013B012B03D90B78012001330B70704722
S1130C8008B5002003F00CFD002803D00020011C4F
S1130C9003F0FAFC08BD0000024B1A6801321A6026
S1130CA07047C046F0FFFF1F37B5002002F07CFC00
S1130CB00E4AC0239B0013600D4A0E4C13600E4A6B
S1130CC0002513600D4B25716571A5711A68FA230F
S1130CD09B005343281C0A49236003F031FD281C60
S1130CE0211C01AA03F092FD37BDC046189014548C
S1130CF01C901454E8FFFF1F00A0145418FEFF1F9B
S1130D00F4FFFF1F10B5002003F05CFD80240A4BA4
S1130D1064001C60094B07201C60094B1C6002F036
S1130D20DBFE062002F0D8FE201C02F0D5FE0020D7
S1130D3002F03FFC10BDC046189014541C9014548B
S1130D4000A0145408B5002002F038FC054A8023A2
S1130D509B001360044A00201360044902F09CFFC6
S1130D6008BDC0460CA0145410A01454C4FFFF1FA7
S1130D7008B5002002F0CCFF084A80235B00136012
S1130D80074A82201360400002F0A6FE0420FF30D0
S1130D9002F0A2FE002002F016FC08BD0CA01454C0
S1130DA010A01454364A08B500231360354A0121B3
S1130DB01360354A80235B001360344A1360344A5D
S1130DC01360344A1360344A1360344A1360344A5B
S1130DD01360344A10780140101C334A002901D0B2
S1130DE0136000E01160314A3149136000220A6047
S1130DF030490A60304A1360304A1360304A136045
S1130E00304A1360304A1360304A13600378DA07BB
S1130E1003D50220FF3002F051FE092002F05CFEEF
S1130E200C2002F059FE052002F056FE082002F0C4
S1130E3053FE0620FF3002F04FFE0E20FF3002F07A
S1130E404BFE8320400002F047FE0820FF3002F0F2
S1130E5043FE0C20FF3002F031FE8220400002F0FD
S1130E603BFE0420FF3002F037FE072002F034FE80
S1130E70062002F031FE8020400002F02DFE08BD65
S1130E800C90145410901454149014541890145436
S1130E901C901454209014542490145430901454DE
S1130EA000A0145410FEFF1F04A0145408A01454EE
S1130EB00CA0145410A0145414A0145418A01454C6
S1130EC01CA0145428A014542CA0145434A014545A
S1130ED008B5092002F000FE08BD08B50C2002F098
S1130EE0FBFD08BD08B53A4B98425DD016D8394B86
S1130EF0984247D009D8384B984234D0FA23DB00C3
S1130F0098423BD0E123DB0014E0344B984240D0BC
S1130F1096231B01984243D0314B16E0314B984243
S1130F2030D00DD8304B98421DD0AF231B019842CE
S1130F3024D02E4B984242D1052002F0CDFD15E07D
S1130F402B4B984225D006D82A4B984237D10520FE
S1130F5002F0C2FD20E0C8231B01984220D0264B9A
S1130F60984221D02BE0052002F0A8FD082002F0D1
S1130F70B3FD0620FF3002F0AFFD24E0052002F0AF
S1130F80ABFD02E0052002F099FD082002F096FD79
S1130F90EFE7052002F092FD082002F09DFD09E034
S1130FA0052002F099FD02E0052002F087FD0820EB
S1130FB002F084FD0620FF3002F080FD03E00020F3
S1130FC00E4901F0A2FA0E4B186802F02AF908BD86
S1130FD0C4090000340800006C070000FC0800008D
S1130FE098080000540B00008C0A0000280A000036
S1130FF01C0C0000B80B0000E40C0000C84F0000FB
S11310000CFEFF1F08B5FFF76DFF092002F056FD27
S11310100C2002F061FD8320400002F05DFD08BD5C
S113102008B5FFF75FFF092002F056FD0C2002F01F
S113103045FD8320400002F041FD08BD021C0D481F
S113104008B51118AF2389B29B00994203D8101C2C
S1131050FFF7D8FF0CE00848111889B2994203D869
S1131060101CFFF7DDFF03E00020044901F04DFAF6
S113107008BDC046F8F8FFFFD8F5FFFFF54F0000A4
S113108008B5FFF725FFFFF728FF8320400002F093
S113109015FD024B186802F0C4F808BD0CFEFF1FD2
S11310A010B5041C002901D0FFF77CFE00210220AA
S11310B000F08CFE211C042000F088FE10BD08B551
S11310C001200021FFF7ECFF3C200121FFF7E8FF9E
S11310D0F6E7000073B5161C002815D01649002049
S11310E001F008F8154C206802F09BF81449002020
S11310F001F000F8206802F094F80020114900F093
S1131100F9FF206802F08DF800250F4C0F49236881
S11311106268002000922A1C01F0F7F9002022687E
S11311200B496368009001F0F0F9002E02DD301CD9
S113113002F077F80135E8E72D50000000FEFF1FAC
S1131140555000001360000000D003407A500000A6
S113115086500000031C303809280BD91A1C613A48
S11311602738052A06D91A1C413A0020052A01D835
S1131170181C3738704770B500F0D7FF051C00F015
S1131180D4FFFF24061C281C2040FFF7E3FF051CA6
S1131190301C2040FFF7DEFF2D012818C0B270BDBF
S11311A070B500F0C2FF061C00F0BFFF051C00F084
S11311B0BCFF041C00F0B9FFFF231E40FA2292007A
S11311C01D40303E56431C406422303D5543303C64
S11311D00A225443751903402C19303BE01870BDA2
S11311E070B588B0151C0CAA16780C4A0C1C126831
S11311F006A94A6004AA1570094D08802D6805A83F
S11312000670009001930295231C002002F034FE26
S1131210431E9841400008B070BDC04614FEFF1F35
S113122008FEFF1FF7B5CB1DDB08DB006A46D21AA8
S113123002AF9546061C0C1CFFF736FDFA2302ADDF
S11312409B000020321C00940193011C2B1C03F012
S11312503BFB041C631E9C41FFF754FDBD46A000EC
S1131260F2BD000008B50020014900F043FF08BDAD
S11312708F54000010B5094C0020211C00F03AFFE7
S1131280211C002000F036FF0549002000F032FF49
S11312900449002000F02EFF10BDC046BB540000DE
S11312A0EB5400001C550000F0B5B1B01DAE301C6D
S11312B00021072203F0F3FD0DA811AA27900FA91E
S11312C02A9213AB15A81BAA28912B932C9024AB1C
S11312D017A92F920320FE4A012419AF18712D91EA
S11312E0002009A9269124920C93347029962E97F4
S11312F002F052F9201C02F04FF9F64B8022120240
S11313001A6001F0ABFF0020021C031C011C0094B6
S113131000F012FFF049002000F0ECFEC82001F0BC
S113132080FFEE49002000F0E5FEC82001F079FFBF
S1131330EB49002000F0DEFEC82001F072FFE94A0C
S1131340231C0221E84801F0ADFF211C201C01F000
S1131350B5FF002003F0E0F80025FC2321A9DB0001
S1131360281C0B804C808C80CD800D818D7203F005
S113137001F9291C221C09A803F091FD1D9812AB48
S11313801190B28811A91A80B3794A266E44337039
S113139003260E70522614A96E4413900A803370EB
S11313A0052113AE31703A2669466E440D900A87C2
S11313B033700DA902260E70422610A96E440F90B8
S11313C00A8033700FA904260E705A2116AE6944A0
S11313D0159032800B70082615A90E70622118AE84
S11313E06944179032800B7017AE0921317019903F
S11313F0BB711BA80A23BA803B700CAA231C05707E
S113140027A802F029F9291C022000F0DFFCB749C3
S1131410B74802F037FBFFF7C5FC0820FF3002F0A5
S11314204DFBC82001F0FDFE0820FF3002F054FB04
S1131430C82001F0F6FE0820FF3002F03FFBC82070
S113144001F0EFFE0820FF3002F046FBC82001F057
S1131450E8FE0820FF3002F031FBC82001F0E1FE75
S113146080260820FF30360202F036FBFFF708FE24
S11314700795069505969F49002000F03BFE9E4C7B
S11314809E4F206801F0CDFE9D49002000F032FE01
S1131490206801F0C6FE9B49079A069B002001F0D4
S11314A034F8206801F0BDFE974D984E98482A689C
S11314B0059933680068019100909649002001F075
S11314C024F8206801F0ADFE934B9448C2587B6920
S11314D0396800200091924901F017F8206801F062
S11314E0A0FE904B8F481A785B788179D2B2DBB238
S11314F0009100208C4901F008F8206801F091FE69
S1131500884900200A7A0B7E8849D2B20978DBB276
S11315100091874900F0F9FF206801F082FE854BB5
S113152085491A785B780969D2B2DBB20091002050
S1131530824900F0EAFF206801F073FE804B77488F
S11315409A78804BD2B2C3587F687F4900970020B5
S113155000F0DBFF206801F064FE7C4B7C491A68D4
S113156009AB1B78002000F0D0FF206801F059FE81
S11315707849002000F0BEFD206801F052FE764953
S1131580002000F0B7FD206801F04BFE73490020F5
S113159000F0B0FD206801F044FE7149002000F025
S11315A0A9FD206801F03DFE6E49002000F0A2FD77
S11315B0206801F036FE6C49002000F09BFD206895
S11315C001F02FFE6949002000F094FD206801F02D
S11315D028FE6749002000F08DFD206801F021FEFF
S11315E06449002000F086FD206801F01AFE62497B
S11315F0002000F07FFD206801F013FE069A03230B
S11316005E49002000F081FF206801F00AFE5C4979
S1131610002000F06FFD206801F003FE594900200E
S113162000F068FD206801F0FCFD5749002000F03F
S113163061FD206801F0F5FD5449002000F05AFDD9
S1131640206801F0EEFD5249002000F053FD2068AF
S113165001F0E7FD4F49002000F04CFD206801F047
S1131660E0FD4D49002000F045FD206801F0D9FD62
S11316704A49002000F03EFD206801F0D2FD4849AF
S1131680002000F037FD206801F0CBFD4549002023
S113169000F030FD206801F0C4FD4349002000F053
S11316A029FD206801F0BDFD4049002000F022FD25
S11316B0206801F0B6FD3E49002000F01BFD2068C3
S11316C001F0AFFD3B49002000F014FD74E0C0467A
S11316D06D0C0000340200204E55000069550000D6
S11316E06F55000028FEFF1F2CFFFF1F3CFEFF1F4D
S11316F02CFEFF1F7655000000FEFF1F00D00340A4
S11317009A550000CC55000014FEFF1F18FEFF1F61
S113171004FEFF1F005600003C100000007004404F
S113172038560000004006406E5600000050064047
S11317309D56000000E0074000ED00E0CD5600009B
S113174000D007403410000007570000F0FFFF1FCF
S11317503F5700006D570000775700009457000072
S1131760B0570000CC570000E957000010580000A3
S11317702F5800004E580000795800009C58000073
S1131780CB580000E75800000B5900002F59000007
S1131790495900006459000082590000955900001D
S11317A0B2590000D1590000F05900000A5A000053
S11317B0355A0000555A0000206801F032FD00F04F
S11317C0B4FCFF27021C04903A406B2A00D1B5E117
S11317D000DD04E1652A00D151E100DDA4E0622AC4
S11317E000D12AE100DD8DE00A2A00D1A0E2612ABD
S11317F000D0A3E2D449002000F07CFCD3490020AF
S113180000F078FC206801F00CFDD149002000F0C4
S113181071FCD049002000F06DFCCF49002000F09D
S113182069FC206801F0FDFCCC49002000F062FC5A
S1131830206801F0F6FCCA49002000F05BFC206837
S113184001F0EFFCC749002000F054FC206801F0CF
S1131850E8FCC549002000F04DFC206801F0E1FCE3
S1131860C249002000F046FC206801F0DAFCC049BF
S1131870002000F03FFC206801F0D3FCBD490020AB
S113188000F038FC206801F0CCFCBB49002000F0DB
S113189031FC206801F0C5FCB849002000F02AFCA6
S11318A0206801F0BEFCB649002000F023FC20684B
S11318B001F0B7FCB349002000F01CFC206801F0E3
S11318C0B0FCB149002000F015FC206801F0A9FC2F
S11318D0AE49002000F00EFC206801F0A2FCAC49E7
S11318E0002000F007FC206801F09BFCA9490020BF
S11318F000F000FC206801F094FC00F016FC021CCF
S11319003A401BE2632A00D1A8E0642A00D015E221
S1131910A149002000F0EEFBFFF742FC9F4EA049D6
S11319203060326800200BE2682A00D1EFE011DC5D
S1131930662A00D1AEE0672A00D0FFE19949002071
S113194000F0D8FBFFF72CFC86B20796321C00206F
S11319509549F5E1692A00D1E1E06A2A00D0EDE178
S1131960069A9249002000F0D0FD00F0DEFB904979
S1131970002000F0BFFB00F0D8FB8E49002000F0EF
S1131980B9FB00F0D2FB8C49002000F0B3FBFFF759
S113199007FC8A49041C002000F0ACFBFFF700FCA4
S11319A08749051C002000F0A5FBFFF7F9FB8549DA
S11319B0002000F09FFBFFF7DEFB059E8249032217
S11319C0069B009501960294002000F09EFD059868
S11319D0FFF7B8F97D49002000F08CFBABE0712AD9
S11319E000D166E10CDC6E2A00D159E100DA15E180
S11319F06F2A00D159E10220702A00D162E19DE1F1
S1131A00742A00D137E50CDC722A00D159E1732A1B
S1131A1000D093E16E49002000F06CFBFFF722FC3C
S1131A2029E5782A00D152E17A2A00D159E1752AB0
S1131A3000D083E1002067497CE16749002000F081
S1131A4059FBFFF7ADFB28602A68644B9A4201D129
S1131A50634B2B602A680020624971E162490020CF
S1131A6000F048FBFFF79CFB306032685B4B9A4206
S1131A7001D15B4B3360326800205C4960E15C4912
S1131A80002000F037FBFFF776FB06905949002051
S1131A90069A55E15849002000F02CFBFFF76BFB38
S1131AA0564C061C321C211C002000F02EFD54490B
S1131AB0002000F01FFBFFF75EFB0AAF021C38702A
S1131AC0211C002000F021FD992E02D100204D4957
S1131AD030E12D681FAC079826802095FFF7AEFAF9
S1131AE00598FFF72FF9484B069E1B680BAA167042
S1131AF002930123009701930020211C02F0BCF9FA
S1131B00021E18D04149002000F0FFFC13E03049C8
S1131B10002000F0EFFA0120FFF7ACFBABE43C49F6
S1131B20002000F0E7FAFFF73BFB86B20596321C73
S1131B300020384904E1FFF71BF99CE436490020F2
S1131B4000F0D8FAFFF7BBFA685A0000735A000095
S1131B50B15A0000F35A0000345B0000745B0000CB
S1131B60B45B0000F15B0000305C00006E5C0000C0
S1131B70AB5C0000E95C0000265D0000655D0000D0
S1131B80A25D0000CB5D0000085E00003F5E000027
S1131B907C5E0000B95E00007F5F000004FEFF1F52
S1131BA0AE5F0000CF600000FB600000A461000095
S1131BB0DE61000007620000206200005F62000036
S1131BC08B620000C3620000F4620000C251000096
S1131BD01D6100003D640000E95E00000F27000065
S1131BE010270000175F0000375F0000655F0000EA
S1131BF0C95F0000FF5F000016600000496000003C
S1131C005F6000008860000008FEFF1FAE600000F7
S1131C104B61000087610000316300004A490020E5
S1131C2000F068FA4949002000F064FAFFF7A3FACB
S1131C301FAD28704649002000F05CFAFFF7B0FAA7
S1131C40041C04982B78C6B26C2E17D1059E002074
S1131C500096079E3F490196221C00F056FC002581
S1131C60A54201DBFFF707FC1FAB1A7800230093A2
S1131C70FF200121FFF7B4FA0135F1E7079E0020A8
S1131C8000963549221C00F040FC0026A64201DBE8
S1131C90FFF7F1FB281C0121FFF7C4FA0136F5E731
S1131CA00798FFF7CBF9FFF7E6FBFFF7E9F9FFF732
S1131CB0E2FB2A49002000F028FC00F05DFEFFF75B
S1131CC0DAFB0820002100F081F8FFF7D4FB244957
S1131CD0002000F00FFA234801F0A3FA0020224963
S1131CE028E02249002000F005FA0598FFF72AF8B9
S1131CF01F49002000F0FEF900F017FA1D49061CE8
S1131D00002000F0F7F9FFF74BFA85B21A492A1CB4
S1131D10002000F0FAFB206801F083FAF1B2683980
S1131D204E427141C9B201202A1C059BFFF7D2F92A
S1131D301249002000F0DEF9FFF79DFB1049002056
S1131D4000F0E3FBFFF797FB1D6100005463000004
S1131D507363000093630000E563000023640000E4
S1131D607B640000102700009A640000A464000053
S1131D70BD640000E66400002E6500006665000096
S1131D80CD5E00001FB5041C01A9002002F01AFC5E
S1131D9001A8694602F054FB009B68461C1901A97E
S1131DA0009402F0D5FA01A90122002002F036FCC9
S1131DB01FBD0000034B00221A60034B8022120651
S1131DC0DA67704700A01C5804E100E010B50A234C
S1131DD00C1C08286ED8FEF79FFB051B283C4862A4
S1131DE06466570001F0CCFD0523012862D0FFF79B
S1131DF0E1FF201CFFF7C6FF0020011C01F04EFC90
S1131E00041C0020012101F059FA002C4FD150E0AC
S1131E1001F0B6FD062301284CD0FFF7CBFF201CB0
S1131E20FFF7B0FF01200021E8E701F0A9FD082336
S1131E3001283FD001F0B6FA002803D00020012188
S1131E4001F03CFA0220002101F028FC00282ED1E8
S1131E502FE001F095FD072300282BD0FFF7AAFF00
S1131E60201CFFF78FFF032005E0FFF7A3FF201CD2
S1131E70FFF788FF0420002101F010FC041C01F08E
S1131E807FFD0028C1D1BDE70820002101F006FC38
S1131E9000280CD10120011C01F010FA09E00520F2
S1131EA002E0062000E00720002101F0F7FB0923EF
S1131EB000E00023181C10BD0269C3689A4204D8CC
S1131EC0806810180138C01A01E0013AD01A70472E
S1131ED0F7B58368C668041C40680191151C9F1BF4
S1131EE08019974203D902F0D1FFAD190AE0019994
S1131EF03A1C02F0CBFF019BED1BD91960682A1C28
S1131F0002F0C4FFE560F7BDF7B5171CC4680022F2
S1131F10061C019100923369B568A34200D85B198D
S1131F20013B1B1B2D1BBD4200D93D1C9D4200D90A
S1131F301D1C73682A1C1819019902F0A7FF009A46
S1131F40019B52190092B2685B1964190193A31A98
S1131F505A1E93415B421C407F1BF460DBD1009806
S1131F60FEBD000010B5104C104A022323616361CA
S1131F700F4BA261A2640F4AE361C8232362E264A7
S1131F8000230422A3626362E362A3656365E365DD
S1131F902265E01D084902F08AFF201C074902F06F
S1131FA086FF2023A37110BDF00000209865000077
S1131FB02800002024000020A1650000A565000081
S1131FC0F7B5204E041C33780191171C002B01D166
S1131FD0FFF7C8FF18235C4348343619F2683469A4
S1131FE000920025944216D9B2683D1C131B9F42EF
S1131FF000D91D1C73682A1C1919019802F046FFA8
S1132000019A641952190192B2687F1BA31A5A1ECD
S113201093415B421C40009B1B1B0093BB4200D9B5
S11320200097009A002A07D073680198191902F0E2
S11320302DFF009AAD18A418002D00D03461281C7F
S1132040FEBDC046F000002010B50B1CEFF3108459
S1132050012181F31088191CFFF7B2FF84F3108863
S113206010BD0000F8B5013018256843134D0F1C4E
S11320702D186E69141C012E0ED0002E06D0022ECF
S113208016D1281CFFF740FF041C14E0281CFFF79E
S113209013FFA0420ED305E0281CFFF70DFF844276
S11320A000D9041C281C391C221CFFF711FF02E074
S11320B0002400E0341C201CF8BDC046F0000020C1
S11320C0F8B50B4B071C1B780E1C151C002B01D1FB
S11320D0FFF748FFEFF31084012181F31088381CC7
S11320E0311C2A1CFFF7BEFF84F31088F8BDC046DC
S11320F0F000002038B5051C081C0C1C02F0DFFEA3
S1132100211C021C281CFFF7DBFF38BD13B56C46ED
S113211007340020211C0122FFF796FF012801D17A
S1132120207801E00120404216BD08B5FFF7EEFF1C
S11321300028FBDB08BD0000F7B5164C019323789B
S1132140051C0F1C161C002B01D1FFF70BFF226985
S113215095421CD2EFF31080012181F31088002DE9
S11321600CD018236A1C5A436B43A750A21856601C
S1132170019AE3181A6200229A625A6218235D4394
S1132180089B6419E36280F31088002001E00120B9
S11321904042FEBDF0000020826810B5041C406877
S11321A0531C834205D820688154A360E36801333B
S11321B0E360A26863689A420CD120692168FFF742
S11321C07FFFA368984203D001235B42E36001E0F0
S11321D00023A36010BD0000F0B585B00A9C051C67
S11321E0009101921F1C081C0126019A904204D3FD
S11321F00199FEF79BF90136F7E70296BE4200D239
S113220002970B9A01231A40039219D1002C01D191
S1132210002415E00B9B20269B070ED53026002FAB
S11322200BD0202609E0281C311CFFF7B5FFEA6813
S1132230013C002A04DB002CEAD0029BA342F2D327
S1132240EA680126002A34DB012F01D9013F06E0A8
S11322500098311CFEF76AF9019B984208D3019A51
S11322605643F1E7301C0199FEF760F9061E10D0C1
S11322700098311CFEF75AF9331C4343009AD21AD2
S11322800D4B0092195C281CFFF786FFEB68002BAE
S1132290E8DA039A002A0CD0002C0AD0029AA2424F
S11322A007D2281C2021FFF777FFEB68013C002BA5
S11322B0F2DA05B0F0BDC046AC650000F0B59DB0E3
S11322C00CAB07934023089300230590161C099335
S11322D00B900A930B784C1C002B04D10A9B002B07
S11322E000DD04E10EE1252B00D0F6E002310025EB
S11322F04F1E3B782B2B0CD003D8232B0DD1082356
S113230008E02D2B03D0302B07D1022302E0012358
S113231000E004231D430131EAE700243B781A1C42
S1132320303A092A05D80A225443303C0137E418CC
S1132330F4E7002102912E2B0DD101373B781A1CB2
S1132340303A092A07D802990A224A43303AD21865
S113235001370292F2E7397804230A1C9A43682A67
S113236001D10137F7E7642925D008D8582900D1CD
S113237093E063291AD0252900D0ACE0A8E07329A2
S113238000D193E00DD8702900D0A4E0336807A8E9
S11323901A1D19683260082300220192009310224A
S11323A093E075296FD0782977D094E033681A1DAB
S11323B0326019788CE033681A1D1B683260D917B3
S11323C058180122049348400392092806DD0A2183
S11323D0FEF7FAF8039B01330393F6E70399029A95
S11323E0914200D20392002C05D0049B002B01DB08
S11323F0690700D5013CAA0702D5029B002B10D027
S1132400E9070ED4002C01D100240AE0039AA24269
S113241007D207A82021FFF7BFFE0A9B013C002B2F
S1132420F0DA0A9B002B56DB0499002904DA4942AE
S1132430049107A82D2103E06A0703D507A82B21DF
S1132440FFF7AAFE0A9B002B45DB03232B40022B3C
S113245011D1029900290ED1002C01D100240AE0E7
S1132460039AA24207D207A83021FFF795FE0A9BE0
S1132470013C002BF0DA0A9B002B2CDB0094019525
S113248007A8049906E0336807A81A1D1968326082
S1132490009401950A22029B17E0336807A81A1DCD
S11324A019683260009401951022F4E733681A1D0C
S11324B032601C682178013400290CD007A8FFF78A
S11324C06BFE0A990029F5DA05E0FFF785FE02E0C4
S11324D007A8FFF761FE7C1C03E007A8191CFFF79F
S11324E05BFE0A9A002A00DAF8E6211CF2E6099A51
S11324F0002A03D005980CA9FFF7E2FD0A99099A6E
S11325008B180A930A981DB0F0BD0EB403B503AB43
S113251004CB111C01AA0193FFF7D0FE02B008BC42
S113252003B0184708B5002001F0E4FA08BD08B567
S1132530002002F0D3F808BD10B5174B0822997893
S1132540114202D099780A439A70144B88210022D0
S113255049015A5012492220087012498020400231
S113256058501868104901401960104910485C58C7
S11325702040C024A404204358500E4B80211A72DA
S1132580197601211A7059700B490A7099790C2235
S11325901142FBD110BDC04600D00740007004407A
S11325A000E0074044100000FFFFF3FF04100000A8
S11325B0FFFFFFF00040064000500640154B16494F
S11325C030B51A1E8A420CD0144C0023A408A3422E
S11325D004D098000D5801331550F8E7104B9A6059
S11325E001E00F4A93600F4A0F490023891A8B4276
S11325F004D0D45C0D48C4540133F8E70C4A0D49A7
S11326000023891A8B4204D0D018002404700133AB
S1132610F8E730BD000000000000000000000000EA
S113262000ED00E00C6E0000B46F000000FEFF1F20
S1132630A8FFFF1F40020020F7B50E24FF34071C3B
S1132640201C0D1C161C01F039FA0A2000F0E9FDCB
S11326507F00201C01F040FA3E430B4AF6B22B0ADD
S11326601670EDB25370032395700093FA23DB00C8
S113267000200193011C054B02F026F9051C201CC7
S113268001F01CFA281CFEBD88010020680100200E
S113269007B5114900200A784B788978DBB2D2B2A9
S11326A000910E49FFF731FF0A2000F0BAFD002027
S11326B0011C0122FFF7C0FF094900200A784B786A
S11326C08978D2B2DBB200910649FFF71EFF0A20D7
S11326D000F0A7FD07BDC04688010020BC650000CE
S11326E068010020E965000038B5051C01200C1CB8
S11326F04042A84203DAFFF718FD3038F9E7A04258
S1132700F9DC38BD70B5051C01200C1C4042A84200
S11327100ADAFFF70AFD061CFFF707FD303E0A231D
S11327205E4330383018F2E7A042F2DC70BDF7B5F2
S1132730041C012001914042A04219DAFFF7F5FC84
S1132740071CFFF7F2FC061CFFF7EFFC051CFFF764
S1132750ECFCFA239B00303F5F43303E64235E432E
S1132760303D0A235D43BE19751930382818E3E754
S1132770019B9842E2DCFEBDF7B500900120019177
S11327804042009B984220DAFFF7CFFC071CFFF77A
S1132790CCFC061CFFF7C9FC051CFFF7C6FC041C97
S11327A0FFF7C3FC0B4B303F5F43FA239B00303EE3
S11327B05E43303D64235D43303C0A235C43BE19D1
S11327C075192C1930382018DBE7019B9842DBDCA3
S11327D0FEBDC0461027000000231A1CC15C9940AE
S11327E00A43013392B2102BF8D1101C7047000039
S11327F007B50E4900200A784B788978D2B2DBB24B
S113280000910B49FFF781FE0A2000F00AFD0949F7
S113281000200A784B788978D2B2DBB2009106495D
S1132820FFF773FE0A2000F0FCFC07BD88010020BE
S1132830BC65000068010020E965000010B50022B5
S113284088B0041C1441012101AB2140D154013250
S11328500C2AF6D11A7804A802705A7842709A7831
S11328608270DA78C2701A7902715A7942719A794F
S11328708271DA79C2711A7A02725A7A42729A7A37
S11328808272DB7AC3720023037343738373C3734B
S1132890FFF7A2FF08B010BD1FB5C37A6C462370C2
S11328A0837A92006370437A8918A370037AE37081
S11328B0C3792371837963714379A3710379E371D4
S11328C0C3782372837863724378A372037868466B
S11328D0E372CB7823738B7863734B78A3730B7891
S11328E0E373FFF779FF04B010BD10B53023041C67
S11328F022789A421ED062789A421BD0A2789342E0
S11329001CD0E178994217D02079984214D060798C
S1132910984211D0A07998420ED0E07998420BD019
S1132920207A984208D0607A984205D0FFF7FDFBE0
S1132930C3B2DDE701201DE0934201D1022019E07A
S11329400220994216D0227903209A4212D0627949
S11329509A420FD0A27904209A420BD0E2799A428B
S113296008D0227A05209A4204D0627A00209A4242
S113297000D1052010BD0000AF4AC023F0B59B0074
S11329801360AE4AE9B01360AD4A1360FEF78CF9E8
S1132990AC4BAD4C802252001A60211C34221FA87B
S11329A002F074FA211C3431142215A802F06EFAD4
S11329B0211C142248311AA802F068FAA349002005
S11329C0FFF798FB0A2000F02CFCA1490020FFF738
S11329D091FB0A2000F025FC302020239843412855
S11329E000D157E3FFF7A1FBC0B24D2801D06D28F9
S11329F0F3D198490020FFF77DFB0A2000F011FC79
S1132A0095490020FFF776FB0A2000F00AFC00201D
S1132A100121FFF769FE051E01D1904901E09049AB
S1132A200020FFF767FB0A2000F0FBFB8D49002024
S1132A30FFF760FB0A2000F0F4FB00200121FFF700
S1132A4053FE071E01D1884901E088490020FFF7A1
S1132A505CFD0A2000F0E5FB85490020FFF74AFBF6
S1132A600A2000F0DEFB2CAE211C5C31331C15C99E
S1132A7015C30968002019600321FFF735FE8300A0
S1132A809A597C49041C0020FFF73FFD0A2000F0FE
S1132A90C8FB0123012C00DC0023D8B20490013DC3
S1132AA040A8013F012243707B425F416B426B416E
S1132AB00026DBB21440FFB2039383730470867064
S1132AC0C670067146718671C77106724672867247
S1132AD0C67206734673C673FFF77EFE0290029AAF
S1132AE06549301CFFF711FD0A2000F09AFB634989
S1132AF0301CFFF7FFFA0A2000F093FB0C2103209F
S1132B00FFF700FE051C5E49301C2A1CFFF7FDFC84
S1132B100A2000F086FB012D06D0EB1E032B03D9FF
S1132B2001960A2D00D0FEE056490020FFF7E2FA94
S1132B300A2000F076FB54490020FFF7DBFA0A2054
S1132B4000F06FFB00200121FFF7CEFD051E01D12F
S1132B504E4901E04E490020FFF7D7FC0A2000F05F
S1132B6060FB4C490020FFF7C5FA0A2000F059FB2E
S1132B7003210020FFF7B8FD061C321C4649002043
S1132B80FFF7C3FC0A2000F04CFB54A80470012397
S1132B90049C321C1A4044708270012E00DC002315
S1132BA0039A013D0024C3706B426B4183718273AD
S1132BB004714471C771047244728472C4720473E0
S1132BC04473C473FFF708FE2B4D0190291C019A2E
S1132BD0201CFFF79AFC023E0A2000F022FB201C76
S1132BE0012E67D92D49FFF785FA0A2000F019FB59
S1132BF02B49201CFFF77EFA0A2000F012FB132158
S1132C00201CFFF77FFD2749021C201CFFF77DFCD9
S1132C100A2000F006FB2449201CFFF76BFA0A2067
S1132C2000F0FFFA2149201CFFF781FD061C204912
S1132C30201C321C67E0C046189014542090145491
S1132C402490145434A01454D04E00000D66000097
S1132C50276600005D66000080660000B266000022
S1132C60E366000017670000436700006367000025
S1132C7082670000AC670000C8670000E0670000DE
S1132C8010680000276800004468000068680000BD
S1132C90816800009A680000B9680000D4680000E8
S1132CA00B690000246900003B690000FF0F00006D
S1132CB057690000E249FFF71DFA0A2000F0B1FA53
S1132CC0E049201CFFF716FA0A2000F0AAFADE49B0
S1132CD0201CFFF72CFDDD4F061C321C391C201C68
S1132CE0FFF713FC0A2000F09CFAD949201CFFF7D7
S1132CF001FA0A2000F095FAD349201CFFF717FDCA
S1132D00391C021C201CFFF700FC0A2000F089FA81
S1132D10301CFFF793FD291C021C201CFFF7F5FB58
S1132D200A2000F07EFA0EAD00210C220BA802F05E
S1132D30B6F8281C00210C2202F0B1F80124281C4A
S1132D401FA90522EC70FFF7A7FD1FA904900C2210
S1132D500BA8FFF7A1FD1FA9059000220BA8FFF700
S1132D609BFD11AD102200210690281C02F097F85B
S1132D70281C6C71FFF730FDB64907900020FFF75F
S1132D80B9F90A2000F04DFAFFF782FC201C00F08C
S1132D9048FAFFF72DFD029900221020FFF74CFCA2
S1132DA0201C00F03EFAFFF723FD002201991020B9
S1132DB0FFF742FC201C00F034FAFFF719FDA64986
S1132DC00020FFF797F90A2000F02BFAA34900200E
S1132DD0FFF790F90A2000F024FA002150222CA8D1
S1132DE002F05DF80021502240A802F058F80021BA
S1132DF0502254A802F053F8994908A86C310A22C9
S1132E0002F044F8002401940294271C0394251C26
S1132E10261C08A8FFF769FD012803D10136B2007A
S1132E202CAB04E0022804D10135AA0040ABD450F5
S1132E3012E0032802D1013702940DE0042805D1E1
S1132E40019B013301939A0054ABF0E705384342E8
S1132E5043410398C01803900134142CD9D1012F95
S1132E6007DD80490020FFF745F90A2000F0D9F971
S1132E70C8E70024A64204D1019A0024A24210D13A
S1132E801FE0A2002CABD3581AAAD05C05990022EB
S1132E90FFF7D2FB0134012000F0C3F9B442F0DBA8
S1132EA0EAE7A20054ABD3581AAAD05C06990022D0
S1132EB0FFF7C2FB012000F0B4F9019B01349C42EE
S1132EC0EFDB0124002D40D0A20040ABD3581AAA56
S1132ED0D05C04990022FFF7AFFB0134012000F01D
S1132EE0A0F9AC42F0DD60492A1C0020FFF70DFB7D
S1132EF00A2000F096F90124221C5C490020FFF707
S1132F0004FB0A2000F08DF959490020FFF7F2F87C
S1132F100A2000F086F957490020FFF72DFC03032F
S1132F20181A5449FDF750FBFFF788FCA20040AB88
S1132F30D35815AA011CD05C0022FFF77DFB013495
S1132F40012000F06EF9AC42D6DD012F0BD0039CBA
S1132F50002C00D1C9E048490020FFF7CBF80A2033
S1132F6000F05FF9C1E045490020FFF7C3F80A20EB
S1132F7000F057F942490020FFF7BCF80A2000F09E
S1132F8050F93C490020FFF7F7FB3E49019000202F
S1132F90FFF7B0F80A2000F044F936490020FFF7A3
S1132FA0EBFB3949041C0020FFF7A4F80A2000F0C9
S1132FB038F9029A1AAB985C04990022FFF73CFB9B
S1132FC0381C00F02EF9029815AB1D5C0499002200
S1132FD0281CFFF731FB381C00F023F92B49029A17
S1132FE00020FFF792FA0A2000F01BF92603361B93
S1132FF00024019A9442AADC201CFDF7B7FD019934
S1133000071C301CFDF7E0FAFA218900FDF7DCFA11
S1133010FDF7ACFD011C381CFDF75EFC1C49FDF7F7
S113302035FBFDF783FDFFF709FC0022011C281C7A
S1133030FFF702FB012000F0F4F80134D9E7C046A1
S11330406F6900009A690000FF0F0000C769000063
S1133050E06900000D6A00002C6A0000676A000045
S1133060D04E0000E16A00000B6B00003C6B0000D6
S11330706F6B0000102700007E6C00009F6B000047
S1133080C66B0000056C0000476C0000666C000015
S113309000002041002440A8047044708470C4706F
S11330A0047144718471C471047244728472C47270
S11330B0047344738473C473FFF78EFB012302907B
S11330C054A8047044708370C47004714471837193
S11330D0C471047244728472C4720473447384733A
S11330E0C473FFF779FB01901DE609490020FFF73F
S11330F001F80A2000F095F8079900221120FFF743
S11331009BFA012000F08DF8002069B0F0BDC046A4
S1133110966C0000031C4170002018705860986081
S1133120704710B54378041C0120FF2B08D000F031
S11331305BFA63780133DBB2637000F049FA002074
S113314010BD0020704738B5041C0D1C00F04CFA6B
S1133150E3681D43E56000F03BFA002038BD000041
S11331600A4B00229A641A1C40329A631A1C3032A9
S11331709A621A1C20329A611A1C10329A60044A0C
S11331801360044B9B60DB607047C046BC010020A9
S1133190B8010020A8010020024B00221A60186820
S11331A080B270470C007C5070B54378041C0E1C30
S11331B0002B0AD000F018FA63780025013BDBB23B
S11331C06370257000F004FA29E00225002926D056
S11331D00378002B16D0FFF7DFFF6368A2689842DC
S11331E001D3C31A03E08021C31A49025B180325E3
S11331F09A4214D200F0F8F90023237000F0E8F9A1
S113320002250CE003254B1C09D000F0EDF9012345
S1133210237000F0DDF9FFF7BFFFA6606060281C93
S113322070BD38B5051CFFF7B7FF041CFFF7B4FFEA
S1133230031BA04203D28022001B520283189D422A
S1133240F4D238BD08B5012801D100F0CDF908BD8C
S113325008B5012801D100F0BBF908BD10B5FFF78E
S11332607FFF094A012313600849094A0020094CD9
S11332701060086004212160074C216007490B603D
S113328007490860136010BD388004500000845062
S113329000000450000004510400045104000C50C8
S11332A00000045310B5044C206021710020A2607A
S11332B02373637310BDC0460C020020F0B585B0C3
S11332C003AD374C009001912870697023790099FF
S11332D004208B4261D9237B002663730123AB70E6
S11332E0371C237BBB4215D9A268BB009B58002B1B
S11332F00DD01A79D1070AD59968281C1B689847FC
S1133300002804D0019A67730526002A32D00137B9
S1133310FFB2E6E7002E02D0019B012B2AD1012047
S1133320FFF790FF00990C204843226800271018EB
S113333000F0A2F8009B01206371FFF789FF0223CC
S1133340AB70237BBB4225D9A168BB005B58002B23
S11333500DD01A7991070AD59968281C1B689847DB
S1133360002804D0019A6773002A15D00626013775
S1133370FFB2E6E70023AB70013FFFB2FF2F09D095
S1133380A168BB005B58002BF6D09968281C1B6809
S11333909847F1E7301C00E0062005B0F0BDC046B8
S11333A00C020020014B58797047C0460C020020E3
S11333B013B503780021041C0191022B07D0032BC1
S11333C00BD0012B0ED10279191C134801E00279AC
S11333D0114801AB00F050FF08E001A90E4800F0CD
S11333E08DFF03E00C4801A900F02AFF002812D148
S11333F0A2790A4BD201D2B21A706278084B5200F9
S1133400D2B21A70A278074B1A70E278064B1A707F
S11334106279064B1A7016BD004006401840865368
S11334200040865000400650014006501840165097
S11334301F2303408022DB0552051A430449430934
S11334409B005B18101C1843002303607047C046A0
S1133450288004401F2303408021DA0549051143D5
S11334604209044892001218081C104301229A4091
S1133470026070472880044073B5124D0022072370
S1133480041C0093281C131C012101F017F9201CB3
S1133490FFF78EFF637A0022217A0093281C131C05
S11334A001F00CF9E279084B92041A60074BA17AF7
S11334B01D68281C00F03EFF281CE17A00F041FF43
S11334C0002076BD0070044000700C59006D0000AF
S11334D008B5054800F074FE044B1968C9B20131FF
S11334E0FDF724F808BDC0460040064044801C5E39
S11334F008B5054800F064FE044B1968C9B20131EF
S1133500FDF714F808BDC0460040064044801C5E28
S113351008B5054800F054FE044B1968C9B20131DE
S1133520FDF704F808BDC046004006404480145826
S113353008B5054800F044FE044B1968C9B20131CE
S1133540FCF7F4FF08BDC046004006404480145810
S11335500C4B1868C0B202280FD0032802D00028F0
S11335600ED102E0FA2080000BE0074B80221B689A
S11335701202934205D1181C03E0044B186800E0C2
S11335800020704700700C593402002038020020DB
S113359008B5FFF7DDFF08BD08B5024B185CFFF75F
S11335A059FF08BDB46C000008B57620FFF752FF40
S11335B008BD08B57620FFF73BFF08BD08B56620B7
S11335C0FFF748FF08BD08B56620FFF731FF08BDC7
S11335D0044A1368002B04D0013B1360002B00D174
S11335E062B670471C02002072B6024B1A680132A0
S11335F01A6070471C02002010B50B4B0B4A12785E
S1133600002A04D1013B002BF8D103200AE0064C28
S1133610074801F0EDFA012803D0013C002CF7D152
S1133620F3E7002010BDC046EA03000002D00751B2
S113363000E0074010B5064C064801F0D9FA04280A
S113364004D0013C002CF7D1032000E0002010BD81
S1133650EA03000000E00740F7B5071C0E1C151C28
S113366001930120002F15D0002913D0FFF7EAFDA4
S1133670094C0021201C102201F011FC2760267146
S1133680002D03D0019BA560237363730120FFF712
S1133690DFFD0020FEBDC04620020020F0B5B24F81
S11336A08BB0019002913B7B01207B73FFF7CAFD35
S11336B03B7901998B4204D80120FFF7C9FD022010
S11336C050E1019A396893005E58019B357807AC44
S11336D0029A2370291C0223994322726660039183
S11336E0012901D0052D0AD1A048012101F0D2F908
S11336F0002809D10120FFF7ABFD012032E1072D9D
S113370002D99A480321F1E701236372002400944B
S11337103B7B00998B4219D9009AB96893005B5896
S1133720002B0ED01A79D1070BD5996807A81B680E
S11337309847002805D0009A029B7A730424012B31
S113374004D1009B0133DBB20093E1E70120FFF7D2
S11337507FFD874800F058FD039A012A1AD10138E9
S1133760C0B2022800D9D4E0FFF7E2FE814B9842B0
S113377000D9CEE0FFF7ACFE7F4FB84200D9C8E0D5
S1133780FFF7C6FEB84200D9C3E0FFF7B1FEB84266
S113379000D9BEE0029A012A00D0DFE003200A2DFE
S11337A000D9DFE0281CFCF7B7FE06080A1B4E64AC
S11337B041472C363B0000225CE003225AE06B4870
S11337C001F016FA012809D06848002101F072F9C5
S11337D0FFF712FF041C002C00D0C3E0012249E0D3
S11337E0624801F005FA042809D06048022101F07A
S11337F061F9FFF71FFF041C002C00D0B2E0042283
S113380038E005AB07221A7000225A70F2789A70D9
S11338103279DA7030E0072205AB1A70012203E036
S1133820072205AB1A7003225A7025E005AB022269
S11338301A7001221A7104E005AB022201211A70E8
S113384019715A7118E005AB02221A70002701227F
S113385046481A715F7101F0CBF901280CD0434836
S1133860391C01F027F9FFF7C7FE041CBC4203D042
S113387078E0052205AB1A702B1C083B05A9022B26
S113388003D873798B71B379CB717378002B0DD016
S1133890012D0BD9B0780222384B002802D01869C8
S11338A0024302E018699043021C1A612F4801F098
S11338B025F9002800D00324002D05D1FFF79CFE34
S11338C00024002805D04DE0012D02D1FFF7B2FEFF
S11338D0F6E70120FFF7B6FC019B234E07AFB37355
S11338E002237B720025337BAB4222D9B168AB0043
S11338F05B58002B0AD01A79910707D59968381CB0
S11339001B689847002801D0757305240135EDB272
S1133910E9E7029B012B11D0002C0FD00120FFF707
S113392091FC07AE0023009D7372013DEDB2FF2DA3
S113393006D10120FFF78CFC201C13E00624EDE7E0
S1133940094BAA009B68D358002BEED01A79D107F3
S1133950EBD59968301C1B689847E6E7002C00D12A
S11339601CE7DBE70BB0F0BD2002002000E00740BD
S11339700040064040420F0080841E0000ED00E03D
S113398008B5064801F034F9012804D001230428BD
S113399002D00B2300E00023181C08BD00E0074000
S11339A00368F7B51D0AFF2635401B4A1E40AB00CD
S11339B09F581A4A041C9A58281C0192FFF7ECFDE0
S11339C0311C0022381C01F01BF9019BB6009E1922
S11339D0227984235B05334352001A608023627981
S11339E05B0533431A60A27990235B0533431201CC
S11339F01A60E3790A4A16431A043260002B0AD08B
S1133A00084B5B5D002B06D01F22134001229A4015
S1133A10131C054A1360F7BD0C6D0000046D000013
S1133A2000001818146D000000E100E0F8B5036808
S1133A30041CFF25180A2840104A1D4083009E5884
S1133A400F4A9F58FFF7A8FD301C291C012201F0E2
S1133A50D7F8301C291C626801F0E2F8AD00227A24
S1133A6088237D195B052B4392001A6098235B051C
S1133A701D43637A9B012B60F8BDC0460C6D0000AA
S1133A80046D000038B50C1C002802D1002C09D1AB
S1133A9012E003680133F9D0051C0835FFF780FFF5
S1133AA0281CF6E72368013306D0251C201C0C359E
S1133AB0FFF7BCFF2C1CF5E738BD0000010AFF230B
S1133AC01940044A890003408A58012098405060F4
S1133AD07047C0460C6D0000010AFF231940044AD8
S1133AE0890003408A580120984090607047C0467E
S1133AF00C6D000008B5084B8200D25894230232A2
S1133B005B0513431B78002B02D000F0C3F901E0DE
S1133B1000F018FA08BDC046B86C0000021C8023EF
S1133B200C325B0513431B78002BF7D001717047EF
S1133B3038B5094B8000C4580D1C201C1830291CB2
S1133B40FFF732FB0328F8D0002801D004232374A4
S1133B50207CC0B238BDC04630020020F0B589B028
S1133B6005930EAB0290161C1A78830035488D0A13
S1133B7018581E3D01903448CFB21C58002007ABA2
S1133B8018800123A07CE374A37453425341DBB235
S1133B9003936B425D41EDB20490002D02D00F0AF5
S1133BA0C9B28C467F000023FFB29D4204D12B1C76
S1133BB0002E01D1039AD3B21F4307AB1F70012219
S1133BC0002D02D0604658700222A360E260019882
S1133BD0391CFFF7A3FF02980F99FFF7A9FF237C75
S1133BE0002B0CD1002E0AD0059AA660E260317831
S1133BF00198FFF793FF02980F99FFF799FF237C31
S1133C00002B16D1039B002B13D0002D01D1002EC5
S1133C100FD000230125A3600198E56001F054F85A
S1133C20291C39430198FFF779FF02980F99FFF790
S1133C307FFF04980023A074207CE374C0B209B011
S1133C40F0BDC046B86C000030020020104A83006A
S1133C5010B598580F4A9C58E37C002B05D0237C60
S1133C60052B02D0237C042B09D19823821C5B05ED
S1133C70134300221A7001F039F801236374A37C02
S1133C80002B03D0201C1830FFF74BFA10BDC046A0
S1133C90B86C000030020020F7B5194B8200D358ED
S1133CA0061C0193174B0D1CD75800920124002FBA
S1133CB024D12422081C391C01F0F1F8281C391CD9
S1133CC01830FFF727FA301CFFF778FC019800F052
S1133CD0AFFF009A0B4BD5500B4B9A5D1F231A4034
S1133CE0231C93401A1C094B1A60019A9C2302322C
S1133CF05B05134380226C741A703C1C201CFEBDAF
S1133D00B86C000030020020B66C000000E100E056
S1133D10F7B50F4E8400A359002701930D4B051CE2
S1133D20E2589C2302325B0513431F70FFF74BFCE0
S1133D30094B01985A5D1F231A40012393401A1C12
S1133D40064B1830DA67FFF7FCF9A751F7BDC046F8
S1133D5030020020B86C0000B66C000004E100E002
S1133D600A4A830070B59E58094A0C1C9D584A683B
S1133D706B699A4209D0FFF7CBFB6268011C0023F0
S1133D80301C00F063FF64686C6170BDB86C0000A7
S1133D9030020020F0B587B005930FAB1B78049276
S1133DA0334A029383009E58324A03919C58071C5D
S1133DB0637C002B02D10320207456E0029B002B6D
S1133DC001D11E230E930023E360A36023742360B8
S1133DD06374029B381CA3740399FFF7C1FF9022FC
S1133DE0B31C52051A431021117098258422F11C2A
S1133DF052056D050A431D43022140231170301CF6
S1133E002B7000F061FF039B381C19880123009379
S1133E100E9B049A0193059BFFF7A0FE0D9B002BBC
S1133E2016D0237C002B10D10C9B301CA3600D9B5F
S1133E30E3600C9B1978FFF771FE029B002B12D0F4
S1133E40381C0E99FFF774FE0DE0237C042B0AD175
S1133E5000232B70F37801255B092B4202D0301C20
S1133E6000F044FF6574207CC0B207B0F0BDC046CA
S1133E70B86C0000300200201FB5069C0094079C1B
S1133E800194089C029401240394FFF783FF04B077
S1133E9010BD0000254A830070B59D588422E91C9A
S1133EA052050A4302211170214A9C5890226B1832
S1133EB052051A431278E978D2B28E0634D5942189
S1133EC049051943097800292ED0012A15D1EB7828
S1133ED0134202D0052323740CE0E368013BE36042
S1133EE0002B07D0A368281C5A1CA2605978FFF73E
S1133EF015FE19E0FFF7AAFE16E06268013A626057
S1133F00002A06D08C214905012A05D10B43082239
S1133F1004E0FFF79BFE02E00B4300221A702368C3
S1133F205A1C22602A791A7070BDC046B86C000011
S1133F3030020020C31C8420400518430223037070
S1133F4070470000F0B5904B8100CD589022EB787B
S1133F5089B05205DBB2071C0593101CAB1D184336
S1133F60EE7884460078EC1CC0B20790942040059B
S1133F70184300780494F6B2441EA041834C06967C
S1133F80982676050C59A91CC0B2334300911143FD
S1133F90029018780A78C0B2D2B20392029A0191C0
S1133FA0002A30D0079900290DD0102362461370DF
S1133FB0281CFFF7BFFF236B002B00D1E1E0F8B210
S1133FC0626B0121D9E000281DD040221A70281C00
S1133FD0FFF7B0FF231C2C331B78002B02D1009871
S1133FE006433370236B002B03D0F8B28021626B3D
S1133FF09847E37D002B04D0201C18308021FFF764
S1134000A2F80A23BCE0069901228E11281C16404E
S1134010FFF790FF0598012103110B4219D0049A70
S113402090235B05134310221A70002E04D0EB7802
S11340305B07DB0F10D11AE0082323702C3423789C
S1134040002B00D09DE09822009C5205224313705F
S113405097E0002E16D0EAE7019810230370236B33
S1134060002B6BD0F8B20221626B984766E001998D
S11340700B70236B002B03D0F8B2626B04219847BA
S11340802B797EE0039A012A26D1EB78134255D08E
S1134090019B1E702B79231C2C331B78002B07D11A
S11340A00298002804D1982300995B050B431870EB
S11340B0236B002B03D0F8B20821626B9847A37DD1
S11340C0002B04D0201C18300821FFF73CF80023F3
S11340D06360E360237554E02B79A268DBB2002AA5
S11340E02AD022691370236901332361A368013B39
S11340F0A360A368002B44D1029B002B12D1231C84
S11341002C331B78002B05D1982300985B0502996A
S113411003431970E37D002B04D0201C18302021A8
S1134120FFF711F8002363752361236B002B28D05C
S1134130F8B2626B202120E0072321E06368002BA2
S11341401DD0E2681378291C80220C3152050A43E1
S11341501278002AF7D02B71E3680133E3606368B7
S1134160013B63606368002B0BD1E3602375236B11
S1134170002B06D0626BF8B21021984701E00623A9
S1134180237009B0F0BDC046B86C000030020020B6
S113419084235B0503431A7800239A4209D08023C1
S11341A05B05013018430378012B01D1024B00E079
S11341B0024B181C7047C04600127A0080841E000F
S11341C010B50D4A831D13431B78041CDBB2002B6E
S11341D00FD0012B07D1FFF7DBFF084B08341C433A
S11341E02378D84006E00020022B03D1044B186842
S11341F000E0044810BDC046000008110000901003
S113420034020020006CDC020C4A831D13431B782B
S1134210DBB2012B08D0002B04D00320022B0CD0DE
S113422005200AE0181C08E080235B0501301843D0
S11342300078431E98410223181A704700000811A1
S11342409C22031C52051830024380201070074A38
S113425000201A43107006489A1D02431078C0B219
S11342600028F8D1034B0B607047C04600000813C8
S113427000000811006CDC02F8B5041C0D1C171CAE
S11342801E1CFFF7C1FF012802D1002D04D007E056
S1134290022805D1012D03D1201C311CFFF7D0FFCA
S11342A08023621C5B0513431D7084235B05234339
S11342B002221A700C4A231C083313437A00D2B228
S11342C01A700A4B402223431A70094AA31D134350
S11342D01B78012BF9D1002D01D1064B00E0064BD0
S11342E03B4133600020F8BD00009010000008132B
S11342F00000081180841E0000127A000A4A10B5DA
S11343001468031C0120002C0CD008488024184396
S11343100470074C981D204300780228F9D11268D4
S113432000200A6010BDC0463402002000000813BB
S1134330000008119C235B05C9011843C9B2017030
S1134340704794235B0549011843C9B20170704753
S113435070B506680C1C301C2049FCF7E7F81F49AF
S1134360051C301CFCF726F90E1C081CE121090170
S1134370FCF7DCF8E121E0800901301CFCF71AF9B4
S11343800E1C081C3C21FCF7D1F83C212081301C78
S1134390FCF710F9124BA17223806E23FF3322889D
S11343A09D4209D9013292B2ED1A032322801A40A8
S11343B0534253416E33F1E7930701D0094900E0BA
S11343C009490123CA5C954201D8638003E00133A3
S11343D0AD1A0D2BF6D1A58070BDC04680510100E9
S11343E0B2070000E36C0000D66C000030B5114940
S11343F00488031C62180020812A19D85A88511E87
S11344000B2915D899884D1E1E2D11D8DD88172D1E
S11344100ED81D893B2D0BD89B7A3B2B08D8A307BC
S113442001D0054B00E0054B9B5C8B424041C0B280
S113443030BDC0464EF8FFFFE36C0000D66C0000B0
S113444070B5124A85880388AD186E22FF325A432C
S11344504488AA189D0852190D4D6600755B5219BF
S11344609D0702D1022C00D8013A0A60C488E122D7
S11344700389120162433C246343D318827A086897
S11344809B18044A42439B180B6070BD4A05F5FF14
S1134490BC6C000080510100084B1A6880231B0289
S11344A09A420AD1031CA020103340051843036824
S11344B0002B02D180235B0003607047340200208C
S11344C010B58022041C520510340023144301212A
S11344D0216023604360016090211C304905014341
S11344E00B608821490501430B6084214905014380
S11344F010430B60036010BD021C902314325B0553
S1134500134300221A604260102201601A6070474F
S11345100068086070470000114B820070B5D558E0
S1134520104B802292051A60041C281CFFF7C8FF58
S1134530281CFFF7B1FF0C4B0C4E195D01251F22FF
S11345401140345D2B1C8B40191C2240084BC020A9
S1134550A840954019501D5019601D6070BDC0469B
S1134560F46C00003C80845EF16C0000F06C000090
S113457000E100E0F7B5124B8000C7580025081C85
S11345800E1C0195FFF732FF041EAC4216D001A9A0
S1134590301CFFF755FF281CFEF7FAFF011C802092
S11345A00002814206D0FBF7C1FF011C0198FBF712
S11345B0BDFF0190381C0199FFF79EFF201CFEBD32
S11345C0F46C0000F7B5134B8000C5580024281C78
S11345D00E1C01A90194FFF79BFF201CFEF7D8FFD6
S11345E0041C8020000284420ED00B4B211C043595
S11345F01D43FBF79BFF2D68019F211C4743A8B275
S1134600FBF794FF3F180197311C01A8FFF7A0FEA8
S1134610F7BDC046F46C000000007810F0B5194BEB
S1134620800085B0C5580026081C0F1C0192039613
S1134630FFF7DCFE041EB44201D100241EE0381C46
S113464003A9FFF7FDFE301C2F68FEF7A1FF011C34
S113465080200002814206D0FBF768FF011C03980A
S1134660FBF764FF0390039BBB42E6D3AB60019A64
S113467088235B051C351D4393002B60201C05B06B
S1134680F0BDC046F46C0000044B8000C25888237F
S11346901C325B051343890019607047F46C0000F9
S11346A0054B8000C258882314325B0513431868F5
S11346B0431E9841C0B27047F46C00006B461A78F0
S11346C0E023DB0212041A400B07111C1943024BAE
S11346D0C01801607047C0464410000008B5084B7C
S11346E08200D258902303325B0513431B78002BBE
S11346F002D000F015F901E000F07CF908BDC046D5
S1134700FC6C00000C4A08B580000C4B8158C3585F
S11347109C2003314005002208431A710270942042
S1134720400501430A701A7F002A03D0181C203068
S1134730FEF7F7FC08BDC046FC6C00003C020020FC
S11347401C4BF7B53022061C0C1C8700081C0021EA
S1134750FD5800F0A4FB301CFEF726FFFEF7D8FE40
S11347602060281C00F0DFFA201C00212030FEF716
S1134770D1FC9023EA1C5B051343019210221A70AA
S1134780281C032100F00FFB281C002100F031FB42
S1134790094BFC50094B9A5D1F231A400123934097
S11347A01A1C074B1A60019A98235B051343402295
S11347B01A70F7BDFC6C00003C020020F86C00008D
S11347C000E100E0F8B50D4E84000D4BA759051C1F
S11347D0E05800F0A8FA381C2030FEF7B2FC094B70
S11347E0281C5A5D1F231A40012393401A1C064BB0
S11347F0DA67FEF7DEFE0023A351F8BD3C02002079
S1134800FC6C0000F86C000004E100E00A4B80003E
S113481070B5C558094B0C1CC358161C281C1A68C3
S1134820096800F087FA30602179281C6279A3793D
S113483000F0CCFA70BDC046FC6C00003C020020C5
S1134840F7B51F4A83009C581E4A061C9D582279BE
S11348500420002A33D1002903D0301C01AAFFF719
S1134860D5FF9821EA1C49051143002340200B7011
S1134870087027699F4203D1301CFFF743FF1DE0F6
S113488001212171A36194235B052B43197807202F
S1134890002914D0A368002B03D019780133A36036
S11348A000E0191CA9712369013B2361A369013349
S11348B0A3619C235B051A43802313700020FEBD73
S11348C03C020020FC6C0000F8B5134C8600134F2A
S11348D03459069DF65901272777A2602561E360C4
S11348E06561FFF7ADFF051E14D1201C2030079928
S11348F0FEF75AFC0328F8D000280BD09C2203367C
S11349005205002332432371137094225205164337
S113491033700325281CF8BD3C020020FC6C000009
S113492010B51F4B8200D3581E49525819790029DB
S113493034D05969002911D09C21490511430978C3
S113494000290BD09479D968E4B2002903D00C7003
S1134950D9680131D9605969013959611969002946
S113496014D0942149051143097800290ED099687F
S1134970002903D00C780131996000E00C1C94717B
S11349801A69013A1A619A6901329A611A69002A0C
S113499004D15B69002B01D1FFF7B4FE10BDC04602
S11349A03C020020FC6C000008B5104B8000C3588A
S11349B00F4A81580022581CC2779C2003314005BD
S11349C00843DA621A701A835A629A621A6302708E
S11349D09420400501430A701A1C38321278002AC8
S11349E003D0181D0121FEF7AEFB08BD3C020020D8
S11349F0FC6C000038B5254B8200D358244952582A
S1134A00591CC97F00293FD0D96A002916DB94219B
S1134A10490511430978002910D0596A1C7F0029DF
S1134A2005D0DD6A002D02DD0C78013159629471E4
S1134A30D96A0139D962596B01315963D96A00299C
S1134A4005DA9421D41C4905214300240C70196B08
S1134A50002911DD9C2149051143097800290BD057
S1134A6091799A6AC9B2002A03D011709A6A013204
S1134A709A621A6B013A1A63DA6A002A04DC1B6B25
S1134A80002B01DCFFF790FF38BDC0463C0200203C
S1134A90FC6C0000012903D0032909D1842300E020
S1134AA094235B0518430078431E9841C0B200E08C
S1134AB000207047034B013049011843C9B201700B
S1134AC07047C0460000881294235B0502304901F8
S1134AD01843C9B201707047034B0230890118436F
S1134AE0C9B201707047C046000008138C235B05EF
S1134AF00230C9001843C9B201707047F7B5384E87
S1134B00C21C164332780B78041C0D1CD2B201204F
S1134B10072B63D8181CFBF7FFFC04192A0D192A6C
S1134B202A3A304B01341C43002323703378012B81
S1134B30FCD152E00320012A50D12A4B01341C43FA
S1134B40402323703378042BFCD146E00021012B51
S1134B5001D004230221327803209A423ED1201C42
S1134B60FFF7A8FF204B04211A698A4333E0022788
S1134B70BB4207D10B790027BB4203D04979201CE3
S1134B80FFF7AAFF194B01341C43277019E0174B98
S1134B90621C1A43042111706A78A11C0B431A7019
S1134BA06B78002B06D1AB78002B03D0E978201C5E
S1134BB0FFF78AFFAB79002B03D0E979201CFFF7BC
S1134BC095FF33780421DBB20193019B01330193F8
S1134BD0054B1A690A431A6130BF0020FEBDC04666
S1134BE0000030100000881200ED00E000001010FA
S1134BF0024B033018430078C0B2704700003010F5
S1134C0014308023012A04D11B058A401843111C47
S1134C1004E0DB04184301238B40D943016070474F
S1134C2001238B40002A01D0436000E08360704779
S1134C300023C222037043708370C3704371837175
S1134C40C371037242728372C3727047F0B587B046
S1134C500293FA239B0053430027012504900591F6
S1134C6001936D423C1C00970123A340039300264B
S1134C70144A059893195988039B5943FBF756FC2A
S1134C80019A831A824200D9131AAB4204D20D4A04
S1134C900094975D1D1E02D00436C82EE8D101345D
S1134CA0032C01D0002DDFD1029B002B00D01D600E
S1134CB0009A3F231F4093011F43049BFFB25F7080
S1134CC007B0F0BD166D0000942302305B0503436A
S1134CD01B78002B04D088235B051843042303E0CE
S1134CE080231B0518433023037070479422831CD0
S1134CF052051A431278011C0220012A12D1802283
S1134D00D2041343CF221A708023DB00C8782022F8
S1134D10024004D0013B002B03D0C046F6E7101C30
S1134D2000E0092070470423C3700023837043709C
S1134D3003717047F0B589B00692120B03920126F5
S1134D4008230722079005910025764202930192D9
S1134D50022700246B1C191C794306980493FBF763
S1134D60E5FB059A824206D3131A9E4203D91E1C00
S1134D7003900294019501347F00092C01D0002E88
S1134D80E8D1072D03D0002E01D0049DE0E7019B5C
S1134D9003981A0170231340029A1343079ADBB253
S1134DA0537009B0F0BD8423C21C5B051343012278
S1134DB00A405200D2B289071A70C90F90235B05CA
S1134DC0023009011843C9B20170704710B58C2430
S1134DD003306405C9000443C9B221708821490520
S1134DE092000143D2B20A7080225205104303702C
S1134DF010BD802302305B05012203430A4089076A
S1134E001A70C90F8C235B05C9001843C9B201701D
S1134E1070470000084B10B5041C002B02D0002181
S1134E2000E000BF054B1868836A002B00D0984748
S1134E30201C00F04BF8C04600000000E06D0000AC
S1134E4070B50E4B0E4D0024ED1AAD101E1CAC4275
S1134E5004D0A300F35898470134F8E701F0C2FFE7
S1134E60084B094D0024ED1AAD101E1CAC4204D0B1
S1134E70A300F35898470134F8E770BD046E0000AE
S1134E80046E0000046E0000086E000010B50023DC
S1134E90934203D0CC5CC4540133F9E710BD031C26
S1134EA08218934202D019700133FAE77047031C49
S1134EB00A7801311A700133002AF9D170470023AE
S1134EC0C25C0133002AFBD1581E7047FEE7C0467E
S1134ED000000000000000010000010000000101CA
S1134EE000010000000100010001010000010101B6
S1134EF001000000010000010100010001000101A6
S1134F0001010000606162636465666768696A6BD9
S1134F106C6D6E6F707172732021222324252627F5
S1134F2028292A2B2C2D2E2F30313233C800000093
S1134F30FA0000004D0100009001000061416F4F34
S1134F406747684869490000D80700008A070000DD
S1134F50B807000012070000B8070000AE07000001
S1134F60B8070000120700008A0700008A07000043
S1134F70AE070000120700000A0700000A0700003D
S1134F800A070000BE070000000A0000FA0900003A
S1134F90FA090000F009000050090000500900005F
S1134FA0E6090000F009000050090000E6090000CD
S1134FB050090000F00900004E0900004E090000ED
S1134FC04E090000880A00001B5B306D1B5B343BFC
S1134FD034336D1B5B313B33376D0D53616E697434
S1134FE07920636865636B206661696C6564211B65
S1134FF05B306D0A001B5B306D1B5B343B34316DE1
S11350001B5B313B33376D0D496E76616C696420EF
S1135010737570706C7920766F6C74616765205B52
S113502025645D206D56211B5B306D0A004D656162
S1135030737572656D656E74206E756D6265722C24
S1135040205254432D3E5453522C205254432D3E4F
S11350505450522C00205254432D3E5453522C2071
S11350605254432D3E5450522C202320436F6E66DD
S11350706967204572726F72730025752C20256450
S11350802C2025642C002025642C2025642C20252C
S1135090640A000D09307825303278202D2D3E2009
S11350A05B307825303278203078253032782030E3
S11350B078253032785D0A000D0930782530327851
S11350C0202D2D3E203078253032780A000D09300D
S11350D07825303278202D2D3E202D2D2D2D0A00BF
S11350E00D0A0925642F2564207375636365737342
S11350F020726174652E0A000D0925642F25642031
S1135100737563636573736573206D617463686538
S113511064207265662E2076616C7565206F66204A
S11351203078253032782E0A000D0925642062611A
S11351306420636F6D6D616E64732E0A0A000D0A3C
S1135140094144584C33363220526561642041622F
S11351506F727465642E20446576696365204469C2
S11351607361626C6564203A28000D0A094D4D4153
S1135170383435315120526561642041626F727454
S113518065642E20446576696365204469736162B1
S11351906C6564203A28000D0A0A424D45363830C1
S11351A020526561642041626F727465642E2044EC
S11351B065766963652044697361626C6564203A4D
S11351C028000D0A09424D58303535616363656C1A
S11351D020526561642041626F727465642E2044BC
S11351E065766963652044697361626C6564203A1D
S11351F02820000D0A09424D583035356779726F01
S113520020526561642041626F727465642E20448B
S113521065766963652044697361626C6564203AEC
S11352202820000D0A0920424D583035356D61673C
S113523020526561642041626F727465642E20445B
S113524065766963652044697361626C6564203ABC
S11352502820000D0A094D41473331313020526571
S113526061642041626F727465642E2044657669BE
S113527063652044697361626C6564203A28200088
S11352800D0A094C3347443230482052656164208A
S113529041626F727465642E20446576696365208B
S11352A044697361626C6564203A2820000D0A0920
S11352B04C505332354820526561642041626F720C
S11352C07465642E2044657669636520446973615E
S11352D0626C6564203A2820000D0A095443533354
S11352E03437323520526561642041626F727465CF
S11352F0642E204465766963652044697361626C39
S11353006564203A2820000D0A09534934373035A2
S113531020526561642041626F727465642E20447A
S113532065766963652044697361626C6564203ADB
S11353302820000D0A09484443313030302052659A
S113534061642041626F727465642E2044657669DD
S113535063652044697361626C6564203A282000A7
S11353600D0A0953493730323120526561642041B6
S1135370626F727465642E204465766963652044A7
S1135380697361626C6564203A2820000D0A094340
S1135390435338313120526561642041626F727425
S11353A065642E204465766963652044697361628F
S11353B06C6564203A2820000D0A09414D473838AD
S11353C0333420526561642041626F727465642EC7
S11353D0204465766963652044697361626C656421
S11353E0203A2820000D0A09415337323632205220
S11353F06561642041626F727465642E2044657631
S11354006963652044697361626C6564203A28208D
S1135410000D0A0941533732363320526561642046
S113542041626F727465642E2044657669636520F9
S113543044697361626C6564203A2820000D09494F
S11354406E76616C6964207761727053656E736FF8
S113545072446576696365205B25645D20706173C1
S113546073656420746F207265706561745265673A
S1135470697374657252656164466F7244657669D6
S11354806365416E64416464726573732E0A000D32
S113549009506F776572757020636F6D6D616E640E
S11354A0206661696C65642E20424D583035352084
S11354B064697361626C6564200A000D09506F773A
S11354C06572646F776E20636F6D6D616E642061C9
S11354D062616E646F6E65642E20424D58303535BE
S11354E02064697361626C65640A000D09506F770A
S11354F06572646F776E20636F6D6D616E64206199
S113550062616E646F6E65642E204C3347443230A2
S1135510482064697361626C65640A000D09506F08
S1135520776572646F776E20636F6D6D616E642052
S11355306162616E646F6E65642E2054435333342C
S11355403732352064697361626C65640A000A0A43
S11355500A0D426F6F74696E6720576172702C2058
S1135560696E20332E2E2E2000322E2E2E20003156
S11355702E2E2E0A0D000D0A0A0A0A5B202A09099A
S113558009095709610972097009287265762E2084
S113559062290909092A205D0A000D5B20200909F6
S11355A0090920202020202043616D62726964670C
S11355B065202F2050687973636F6D706C61622071
S11355C020200909090920205D0A0A000D095375E4
S11355D070706C793D25646D562C0944656661755F
S11355E06C74205461726765742052656164205242
S11355F0656769737465723D3078253032780A00C6
S11356000D094932433D25646B622F732C095350B5
S1135610493D25646B622F732C09554152543D2535
S1135620646B622F732C094932432050756C6C2DC6
S113563055703D25640A0A000D0953494D2D3E530A
S1135640434743363D307825303278090952544374
S11356502D3E53523D307825303278090952544357
S11356602D3E5453523D3078253032780A000D09CE
S11356704D43475F43313D3078253032780909097D
S11356804D43475F43323D30782530327809094D28
S113569043475F533D3078253032780A000D094D79
S11356A043475F53433D3078253032780909094D2B
S11356B043475F4D433D30782530327809094F53D5
S11356C0435F43523D3078253032780A000D095348
S11356D04D435F504D50524F543D30782530327811
S11356E0090909534D435F504D4354524C3D3078A2
S11356F02530327809095343422D3E5343523D30FD
S113570078253032780A000D09504D435F524547E1
S113571053433D30782530327809090953494D5FA8
S113572053434743343D307825303278095254434B
S11357302D3E5450523D3078253032780A0A000DFF
S11357400925647320696E205254432048616E64B5
S11357506C657220746F2D646174652C0925642056
S1135760506D6772204572726F72730A000D536533
S11357706C6563743A0A000D2D202761273A207363
S113578065742064656661756C742073656E736FEF
S1135790722E0A000D2D202762273A20736574208B
S11357A0493243206261756420726174652E0A0077
S11357B00D2D202763273A20736574205350492008
S11357C06261756420726174652E0A000D2D2027B4
S11357D064273A20736574205541525420626175E0
S11357E06420726174652E0A000D2D202765273A06
S11357F0207365742064656661756C7420726567D6
S1135800697374657220616464726573732E0A002F
S11358100D2D202766273A207772697465206279F6
S1135820746520746F2073656E736F722E0A000D99
S11358302D202767273A2073657420646566617597
S11358406C74205353535550504C592E0A000D2D4F
S1135850202768273A20706F776572646F776E200F
S1135860636F6D6D616E6420746F20616C6C207366
S1135870656E736F72732E0A000D2D202769273A07
S1135880207365742070756C6C2D757020656E6165
S1135890626C652076616C75652E0A000D2D2027DB
S11358A06A273A20726570656174207265616420AC
S11358B072656720307825303278206F6E207365EA
S11358C06E736F72202325642E0A000D2D20276B22
S11358D0273A20736C65657020756E74696C20724C
S11358E0657365742E0A000D2D20276C273A2073EA
S11358F0656E642072657065617465642062797494
S113590065206F6E204932432E0A000D2D20276D2D
S1135910273A2073656E64207265706561746564EE
S11359202062797465206F6E205350492E0A000D51
S11359302D20276E273A20656E61626C65205353D3
S1135940535550504C592E0A000D2D20276F273ADD
S11359502064697361626C65205353535550504CF5
S1135960592E0A000D2D202770273A207377697469
S1135970636820746F20564C5052206D6F64652EFE
S11359800A000D2D202771273A204D41583131331B
S113599030302E0A000D2D202772273A20737769A4
S11359A074636820746F2052554E206D6F64652EA9
S11359B00A000D2D202773273A20706F7765722017
S11359C0757020616C6C2073656E736F72732E0A30
S11359D0000D2D202774273A2064756D7020707295
S11359E06F636573736F722073746174652E0A003C
S11359F00D2D202775273A207365742049324320E2
S1135A00616464726573732E0A000D2D2027782754
S1135A103A2064697361626C652053574420616E57
S1135A2064207370696E20666F7220313020736554
S1135A3063732E0A000D2D20277A273A2064756D92
S1135A407020616C6C2073656E736F727320646177
S1135A5074612E0A000D456E7465722073656C6561
S1135A606374696F6E3E20000D0953656C65637441
S1135A703A0A000D092D20273127204144584C3380
S1135A80363209090928307830302D2D30783244E7
S1135A90293A20312E3656202D2D20332E355620EE
S1135AA028636F6D70696C6564206F757429200AB2
S1135AB0000D092D2027322720424D5830353561FD
S1135AC06363656C20090928307830302D2D3078D7
S1135AD03346293A20322E3456202D2D20332E36AB
S1135AE0562028636F6D70696C6564206F75742926
S1135AF0200A000D092D2027332720424D58303528
S1135B00356779726F09090928307830302D2D30C6
S1135B10783346293A20322E3456202D2D20332E28
S1135B2036562028636F6D70696C6564206F7574D8
S1135B3029200A000D092D2027342720424D5830F2
S1135B4035356D616709090928307834302D2D30D9
S1135B50783532293A20322E3456202D2D20332EFA
S1135B6036562028636F6D70696C6564206F757498
S1135B7029200A000D092D20273527204D4D4138B5
S1135B803435315109090928307830302D2D3078D9
S1135B903331293A20312E393556202D2D20332EFC
S1135BA036562028636F6D70696C6564206F757458
S1135BB029200A000D092D20273627204C50533266
S1135BC0354809090928307830382D2D3078323499
S1135BD0293A20312E3756202D2D20332E365620AB
S1135BE028636F6D70696C6564206F757429200A71
S1135BF0000D092D20273727204D414733313130FF
S1135C0009090928307830302D2D30783131293A7E
S1135C1020312E393556202D2D20332E365620286E
S1135C20636F6D70696C6564206F757429200A0058
S1135C300D092D20273827204844433130303009BE
S1135C40090928307830302D2D30783146293A2012
S1135C50332E3056202D2D20352E30562028636FBC
S1135C606D70696C6564206F757429200A000D09D4
S1135C702D20273927205349373032310909092883
S1135C80307830302D2D30783046293A20312E3975
S1135C9056202D2D20332E36562028636F6D7069C3
S1135CA06C6564206F757429200A000D092D202766
S1135CB06127204C33474432304809090928307899
S1135CC030462D2D30783339293A20322E32562061
S1135CD02D2D20332E36562028636F6D70696C6528
S1135CE064206F757429200A000D092D202762276E
S1135CF020424D4536383009090928307841412D74
S1135D002D30784638293A20312E3656202D2D2034
S1135D10332E36562028636F6D70696C6564206F6E
S1135D20757429200A000D092D2027642720544367
S1135D3053333437323509090928307830302D2D62
S1135D4030783144293A20322E3756202D2D2033F5
S1135D502E33562028636F6D70696C6564206F75EF
S1135D607429200A000D092D202765272053493462
S1135D70373035090909286E2F61293A202020205F
S1135D8020202020322E3756202D2D20352E35561A
S1135D902028636F6D70696C6564206F75742920A9
S1135DA00A000D092D202766272050414E31333239
S1135DB036090909286E2F61292028636F6D7069DF
S1135DC06C6564206F757429200A000D092D202745
S1135DD06727204343533831310909092830783083
S1135DE0302D2D30784646293A20312E3856202D34
S1135DF02D20332E36562028636F6D70696C6564D0
S1135E00206F757429200A000D092D20276827208A
S1135E10414D473838333409090928307830302D5A
S1135E202D3F293A203F56202D2D203F5620286310
S1135E306F6D70696C6564206F757429200A000D9C
S1135E40092D20276A2720415337323632090909A0
S1135E5028307830302D2D30783242293A20322EB5
S1135E603756202D2D20332E36562028636F6D7023
S1135E70696C6564206F757429200A000D092D2052
S1135E80276B2720415337323633090909283078E4
S1135E9030302D2D30783242293A20322E37562098
S1135EA02D2D20332E36562028636F6D70696C6556
S1135EB064206F757429200A000D09456E7465729B
S1135EC02073656C656374696F6E3E20000D09492B
S1135ED06E76616C69642073656C656374696F6E5A
S1135EE0202725632720210A000D0A095365742001
S1135EF04932432062617564207261746520696E61
S1135F00206B6270732028652E672E2C202730307A
S1135F10303127293E20000D0A09493243206261AD
S1135F20756420726174652073657420746F202514
S1135F3064206B622F73000D0A095365742053505B
S1135F40492062617564207261746520696E206BFA
S1135F506270732028652E672E2C20273030303154
S1135F6027293E20000D0A095350492062617564B7
S1135F7020726174653A202564206B622F73000DD2
S1135F800A09536574205541525420626175642096
S1135F907261746520696E206B6270732028652EAF
S1135FA0672E2C20273030303127293E20000D0A5F
S1135FB00955415254206261756420726174653AD6
S1135FC0202564206B622F73000D0A09456E7465E9
S1135FD07220322D6E7962626C6520726567697316
S1135FE074657220686578206164647265737320D7
S1135FF028652E672E2C2027336527293E20000D87
S11360000A09456E7465726564205B307825303208
S1136010785D2E0A0A000D0A09456E7465722049DE
